{
  "address": "0x71d56d94261086bFfa3D5f97c2043cD7E1a87afb",
  "abi": [
    {
      "inputs": [],
      "name": "FEATURE_NAME",
      "outputs": [
        {
          "internalType": "string",
          "name": "",
          "type": "string"
        }
      ],
      "stateMutability": "view",
      "type": "function"
    },
    {
      "inputs": [],
      "name": "FEATURE_VERSION",
      "outputs": [
        {
          "internalType": "uint256",
          "name": "",
          "type": "uint256"
        }
      ],
      "stateMutability": "view",
      "type": "function"
    },
    {
      "inputs": [
        {
          "internalType": "bytes4",
          "name": "interfaceId",
          "type": "bytes4"
        }
      ],
      "name": "supportInterface",
      "outputs": [
        {
          "internalType": "bool",
          "name": "isSupported",
          "type": "bool"
        }
      ],
      "stateMutability": "pure",
      "type": "function"
    }
  ],
  "transactionHash": "0x53f1151d456cbdc1e957babda3952105096e537015a19d4efb8d8c52464b6774",
  "args": [],
  "numDeployments": 1,
  "solcInputHash": "011237655157f4d2198ab80c9f4857a8",
  "bytecode": "0x60c0604052610011600160008061002d565b60a05234801561002057600080fd5b503060601b60805261005f565b6bffffffff0000000000000000604084901b1667ffffffff00000000602084901b161763ffffffff8216179392505050565b60805160601c60a0516102dd61007f60003980609b5250506102dd6000f3fe608060405234801561001057600080fd5b50600436106100415760003560e01c8063031b905c146100465780636ae4b4f71461006457806375e79be614610079575b600080fd5b61004e610099565b60405161005b919061029e565b60405180910390f35b61006c6100bd565b60405161005b919061022d565b61008c6100873660046101db565b6100f6565b60405161005b9190610222565b7f000000000000000000000000000000000000000000000000000000000000000081565b6040518060400160405280600681526020017f455243313635000000000000000000000000000000000000000000000000000081525081565b60007f01ffc9a7000000000000000000000000000000000000000000000000000000007fffffffff000000000000000000000000000000000000000000000000000000008316148061018957507f150b7a02000000000000000000000000000000000000000000000000000000007fffffffff000000000000000000000000000000000000000000000000000000008316145b806101d557507f4e2312e0000000000000000000000000000000000000000000000000000000007fffffffff000000000000000000000000000000000000000000000000000000008316145b92915050565b6000602082840312156101ec578081fd5b81357fffffffff000000000000000000000000000000000000000000000000000000008116811461021b578182fd5b9392505050565b901515815260200190565b6000602080835283518082850152825b818110156102595785810183015185820160400152820161023d565b8181111561026a5783604083870101525b50601f017fffffffffffffffffffffffffffffffffffffffffffffffffffffffffffffffe016929092016040019392505050565b9081526020019056fea264697066735822122076db7a6e0b161b3faed9e6f1733bc899dcbed122580c0a839bf77afe2ad2be5064736f6c634300060c0033",
  "devdoc": {
    "details": "Implements the ERC165 `supportsInterface` function",
    "kind": "dev",
    "methods": {
      "supportInterface(bytes4)": {
        "details": "Indicates whether the 0x Exchange Proxy implements a particular      ERC165 interface. This function should use at most 30,000 gas.",
        "params": {
          "interfaceId": "The interface identifier, as specified in ERC165."
        },
        "returns": {
          "isSupported": "Whether the given interface is supported by the         0x Exchange Proxy."
        }
      }
    },
    "stateVariables": {
      "FEATURE_NAME": {
        "details": "Name of this feature."
      },
      "FEATURE_VERSION": {
        "details": "Version of this feature."
      }
    },
    "version": 1
  },
  "userdoc": {
    "kind": "user",
    "methods": {},
    "version": 1
  },
  "storageLayout": {
    "storage": [],
    "types": null
  }
}