{
  "address": "0x5e850FC7104d1843957627c5028020faB1fd09dD",
  "abi": [
    {
      "inputs": [
        {
          "internalType": "address",
          "name": "zeroExAddress",
          "type": "address"
        },
        {
          "internalType": "contract IEtherTokenV06",
          "name": "weth",
          "type": "address"
        }
      ],
      "stateMutability": "nonpayable",
      "type": "constructor"
    },
    {
      "anonymous": false,
      "inputs": [
        {
          "indexed": false,
          "internalType": "address",
          "name": "maker",
          "type": "address"
        },
        {
          "indexed": false,
          "internalType": "uint256",
          "name": "nonce",
          "type": "uint256"
        }
      ],
      "name": "ERC1155OrderCancelled",
      "type": "event"
    },
    {
      "anonymous": false,
      "inputs": [
        {
          "indexed": false,
          "internalType": "enum LibNFTOrder.TradeDirection",
          "name": "direction",
          "type": "uint8"
        },
        {
          "indexed": false,
          "internalType": "address",
          "name": "maker",
          "type": "address"
        },
        {
          "indexed": false,
          "internalType": "address",
          "name": "taker",
          "type": "address"
        },
        {
          "indexed": false,
          "internalType": "uint256",
          "name": "nonce",
          "type": "uint256"
        },
        {
          "indexed": false,
          "internalType": "contract IERC20TokenV06",
          "name": "erc20Token",
          "type": "address"
        },
        {
          "indexed": false,
          "internalType": "uint256",
          "name": "erc20FillAmount",
          "type": "uint256"
        },
        {
          "indexed": false,
          "internalType": "contract IERC1155Token",
          "name": "erc1155Token",
          "type": "address"
        },
        {
          "indexed": false,
          "internalType": "uint256",
          "name": "erc1155TokenId",
          "type": "uint256"
        },
        {
          "indexed": false,
          "internalType": "uint128",
          "name": "erc1155FillAmount",
          "type": "uint128"
        },
        {
          "indexed": false,
          "internalType": "address",
          "name": "matcher",
          "type": "address"
        }
      ],
      "name": "ERC1155OrderFilled",
      "type": "event"
    },
    {
      "anonymous": false,
      "inputs": [
        {
          "indexed": false,
          "internalType": "enum LibNFTOrder.TradeDirection",
          "name": "direction",
          "type": "uint8"
        },
        {
          "indexed": false,
          "internalType": "address",
          "name": "maker",
          "type": "address"
        },
        {
          "indexed": false,
          "internalType": "address",
          "name": "taker",
          "type": "address"
        },
        {
          "indexed": false,
          "internalType": "uint256",
          "name": "expiry",
          "type": "uint256"
        },
        {
          "indexed": false,
          "internalType": "uint256",
          "name": "nonce",
          "type": "uint256"
        },
        {
          "indexed": false,
          "internalType": "contract IERC20TokenV06",
          "name": "erc20Token",
          "type": "address"
        },
        {
          "indexed": false,
          "internalType": "uint256",
          "name": "erc20TokenAmount",
          "type": "uint256"
        },
        {
          "components": [
            {
              "internalType": "address",
              "name": "recipient",
              "type": "address"
            },
            {
              "internalType": "uint256",
              "name": "amount",
              "type": "uint256"
            },
            {
              "internalType": "bytes",
              "name": "feeData",
              "type": "bytes"
            }
          ],
          "indexed": false,
          "internalType": "struct LibNFTOrder.Fee[]",
          "name": "fees",
          "type": "tuple[]"
        },
        {
          "indexed": false,
          "internalType": "contract IERC1155Token",
          "name": "erc1155Token",
          "type": "address"
        },
        {
          "indexed": false,
          "internalType": "uint256",
          "name": "erc1155TokenId",
          "type": "uint256"
        },
        {
          "components": [
            {
              "internalType": "contract IPropertyValidator",
              "name": "propertyValidator",
              "type": "address"
            },
            {
              "internalType": "bytes",
              "name": "propertyData",
              "type": "bytes"
            }
          ],
          "indexed": false,
          "internalType": "struct LibNFTOrder.Property[]",
          "name": "erc1155TokenProperties",
          "type": "tuple[]"
        },
        {
          "indexed": false,
          "internalType": "uint128",
          "name": "erc1155TokenAmount",
          "type": "uint128"
        }
      ],
      "name": "ERC1155OrderPreSigned",
      "type": "event"
    },
    {
      "inputs": [],
      "name": "EIP712_DOMAIN_SEPARATOR",
      "outputs": [
        {
          "internalType": "bytes32",
          "name": "",
          "type": "bytes32"
        }
      ],
      "stateMutability": "view",
      "type": "function"
    },
    {
      "inputs": [],
      "name": "FEATURE_NAME",
      "outputs": [
        {
          "internalType": "string",
          "name": "",
          "type": "string"
        }
      ],
      "stateMutability": "view",
      "type": "function"
    },
    {
      "inputs": [],
      "name": "FEATURE_VERSION",
      "outputs": [
        {
          "internalType": "uint256",
          "name": "",
          "type": "uint256"
        }
      ],
      "stateMutability": "view",
      "type": "function"
    },
    {
      "inputs": [
        {
          "components": [
            {
              "internalType": "enum LibNFTOrder.TradeDirection",
              "name": "direction",
              "type": "uint8"
            },
            {
              "internalType": "address",
              "name": "maker",
              "type": "address"
            },
            {
              "internalType": "address",
              "name": "taker",
              "type": "address"
            },
            {
              "internalType": "uint256",
              "name": "expiry",
              "type": "uint256"
            },
            {
              "internalType": "uint256",
              "name": "nonce",
              "type": "uint256"
            },
            {
              "internalType": "contract IERC20TokenV06",
              "name": "erc20Token",
              "type": "address"
            },
            {
              "internalType": "uint256",
              "name": "erc20TokenAmount",
              "type": "uint256"
            },
            {
              "components": [
                {
                  "internalType": "address",
                  "name": "recipient",
                  "type": "address"
                },
                {
                  "internalType": "uint256",
                  "name": "amount",
                  "type": "uint256"
                },
                {
                  "internalType": "bytes",
                  "name": "feeData",
                  "type": "bytes"
                }
              ],
              "internalType": "struct LibNFTOrder.Fee[]",
              "name": "fees",
              "type": "tuple[]"
            },
            {
              "internalType": "contract IERC1155Token",
              "name": "erc1155Token",
              "type": "address"
            },
            {
              "internalType": "uint256",
              "name": "erc1155TokenId",
              "type": "uint256"
            },
            {
              "components": [
                {
                  "internalType": "contract IPropertyValidator",
                  "name": "propertyValidator",
                  "type": "address"
                },
                {
                  "internalType": "bytes",
                  "name": "propertyData",
                  "type": "bytes"
                }
              ],
              "internalType": "struct LibNFTOrder.Property[]",
              "name": "erc1155TokenProperties",
              "type": "tuple[]"
            },
            {
              "internalType": "uint128",
              "name": "erc1155TokenAmount",
              "type": "uint128"
            }
          ],
          "internalType": "struct LibNFTOrder.ERC1155Order",
          "name": "sellOrder",
          "type": "tuple"
        },
        {
          "components": [
            {
              "internalType": "enum LibSignature.SignatureType",
              "name": "signatureType",
              "type": "uint8"
            },
            {
              "internalType": "uint8",
              "name": "v",
              "type": "uint8"
            },
            {
              "internalType": "bytes32",
              "name": "r",
              "type": "bytes32"
            },
            {
              "internalType": "bytes32",
              "name": "s",
              "type": "bytes32"
            }
          ],
          "internalType": "struct LibSignature.Signature",
          "name": "signature",
          "type": "tuple"
        },
        {
          "components": [
            {
              "internalType": "uint128",
              "name": "buyAmount",
              "type": "uint128"
            },
            {
              "internalType": "uint256",
              "name": "ethAvailable",
              "type": "uint256"
            },
            {
              "internalType": "bytes",
              "name": "takerCallbackData",
              "type": "bytes"
            }
          ],
          "internalType": "struct NFTOrders.BuyParams",
          "name": "params",
          "type": "tuple"
        }
      ],
      "name": "_buyERC1155",
      "outputs": [],
      "stateMutability": "payable",
      "type": "function"
    },
    {
      "inputs": [
        {
          "components": [
            {
              "internalType": "enum LibNFTOrder.TradeDirection",
              "name": "direction",
              "type": "uint8"
            },
            {
              "internalType": "address",
              "name": "maker",
              "type": "address"
            },
            {
              "internalType": "address",
              "name": "taker",
              "type": "address"
            },
            {
              "internalType": "uint256",
              "name": "expiry",
              "type": "uint256"
            },
            {
              "internalType": "uint256",
              "name": "nonce",
              "type": "uint256"
            },
            {
              "internalType": "contract IERC20TokenV06",
              "name": "erc20Token",
              "type": "address"
            },
            {
              "internalType": "uint256",
              "name": "erc20TokenAmount",
              "type": "uint256"
            },
            {
              "components": [
                {
                  "internalType": "address",
                  "name": "recipient",
                  "type": "address"
                },
                {
                  "internalType": "uint256",
                  "name": "amount",
                  "type": "uint256"
                },
                {
                  "internalType": "bytes",
                  "name": "feeData",
                  "type": "bytes"
                }
              ],
              "internalType": "struct LibNFTOrder.Fee[]",
              "name": "fees",
              "type": "tuple[]"
            },
            {
              "internalType": "contract IERC1155Token",
              "name": "erc1155Token",
              "type": "address"
            },
            {
              "internalType": "uint256",
              "name": "erc1155TokenId",
              "type": "uint256"
            },
            {
              "components": [
                {
                  "internalType": "contract IPropertyValidator",
                  "name": "propertyValidator",
                  "type": "address"
                },
                {
                  "internalType": "bytes",
                  "name": "propertyData",
                  "type": "bytes"
                }
              ],
              "internalType": "struct LibNFTOrder.Property[]",
              "name": "erc1155TokenProperties",
              "type": "tuple[]"
            },
            {
              "internalType": "uint128",
              "name": "erc1155TokenAmount",
              "type": "uint128"
            }
          ],
          "internalType": "struct LibNFTOrder.ERC1155Order[]",
          "name": "sellOrders",
          "type": "tuple[]"
        },
        {
          "components": [
            {
              "internalType": "enum LibSignature.SignatureType",
              "name": "signatureType",
              "type": "uint8"
            },
            {
              "internalType": "uint8",
              "name": "v",
              "type": "uint8"
            },
            {
              "internalType": "bytes32",
              "name": "r",
              "type": "bytes32"
            },
            {
              "internalType": "bytes32",
              "name": "s",
              "type": "bytes32"
            }
          ],
          "internalType": "struct LibSignature.Signature[]",
          "name": "signatures",
          "type": "tuple[]"
        },
        {
          "internalType": "uint128[]",
          "name": "erc1155FillAmounts",
          "type": "uint128[]"
        },
        {
          "internalType": "bytes[]",
          "name": "callbackData",
          "type": "bytes[]"
        },
        {
          "internalType": "bool",
          "name": "revertIfIncomplete",
          "type": "bool"
        }
      ],
      "name": "batchBuyERC1155s",
      "outputs": [
        {
          "internalType": "bool[]",
          "name": "successes",
          "type": "bool[]"
        }
      ],
      "stateMutability": "payable",
      "type": "function"
    },
    {
      "inputs": [
        {
          "internalType": "uint256[]",
          "name": "orderNonces",
          "type": "uint256[]"
        }
      ],
      "name": "batchCancelERC1155Orders",
      "outputs": [],
      "stateMutability": "nonpayable",
      "type": "function"
    },
    {
      "inputs": [
        {
          "components": [
            {
              "internalType": "enum LibNFTOrder.TradeDirection",
              "name": "direction",
              "type": "uint8"
            },
            {
              "internalType": "address",
              "name": "maker",
              "type": "address"
            },
            {
              "internalType": "address",
              "name": "taker",
              "type": "address"
            },
            {
              "internalType": "uint256",
              "name": "expiry",
              "type": "uint256"
            },
            {
              "internalType": "uint256",
              "name": "nonce",
              "type": "uint256"
            },
            {
              "internalType": "contract IERC20TokenV06",
              "name": "erc20Token",
              "type": "address"
            },
            {
              "internalType": "uint256",
              "name": "erc20TokenAmount",
              "type": "uint256"
            },
            {
              "components": [
                {
                  "internalType": "address",
                  "name": "recipient",
                  "type": "address"
                },
                {
                  "internalType": "uint256",
                  "name": "amount",
                  "type": "uint256"
                },
                {
                  "internalType": "bytes",
                  "name": "feeData",
                  "type": "bytes"
                }
              ],
              "internalType": "struct LibNFTOrder.Fee[]",
              "name": "fees",
              "type": "tuple[]"
            },
            {
              "internalType": "contract IERC1155Token",
              "name": "erc1155Token",
              "type": "address"
            },
            {
              "internalType": "uint256",
              "name": "erc1155TokenId",
              "type": "uint256"
            },
            {
              "components": [
                {
                  "internalType": "contract IPropertyValidator",
                  "name": "propertyValidator",
                  "type": "address"
                },
                {
                  "internalType": "bytes",
                  "name": "propertyData",
                  "type": "bytes"
                }
              ],
              "internalType": "struct LibNFTOrder.Property[]",
              "name": "erc1155TokenProperties",
              "type": "tuple[]"
            },
            {
              "internalType": "uint128",
              "name": "erc1155TokenAmount",
              "type": "uint128"
            }
          ],
          "internalType": "struct LibNFTOrder.ERC1155Order",
          "name": "sellOrder",
          "type": "tuple"
        },
        {
          "components": [
            {
              "internalType": "enum LibSignature.SignatureType",
              "name": "signatureType",
              "type": "uint8"
            },
            {
              "internalType": "uint8",
              "name": "v",
              "type": "uint8"
            },
            {
              "internalType": "bytes32",
              "name": "r",
              "type": "bytes32"
            },
            {
              "internalType": "bytes32",
              "name": "s",
              "type": "bytes32"
            }
          ],
          "internalType": "struct LibSignature.Signature",
          "name": "signature",
          "type": "tuple"
        },
        {
          "internalType": "uint128",
          "name": "erc1155BuyAmount",
          "type": "uint128"
        },
        {
          "internalType": "bytes",
          "name": "callbackData",
          "type": "bytes"
        }
      ],
      "name": "buyERC1155",
      "outputs": [],
      "stateMutability": "payable",
      "type": "function"
    },
    {
      "inputs": [
        {
          "internalType": "uint256",
          "name": "orderNonce",
          "type": "uint256"
        }
      ],
      "name": "cancelERC1155Order",
      "outputs": [],
      "stateMutability": "nonpayable",
      "type": "function"
    },
    {
      "inputs": [
        {
          "components": [
            {
              "internalType": "enum LibNFTOrder.TradeDirection",
              "name": "direction",
              "type": "uint8"
            },
            {
              "internalType": "address",
              "name": "maker",
              "type": "address"
            },
            {
              "internalType": "address",
              "name": "taker",
              "type": "address"
            },
            {
              "internalType": "uint256",
              "name": "expiry",
              "type": "uint256"
            },
            {
              "internalType": "uint256",
              "name": "nonce",
              "type": "uint256"
            },
            {
              "internalType": "contract IERC20TokenV06",
              "name": "erc20Token",
              "type": "address"
            },
            {
              "internalType": "uint256",
              "name": "erc20TokenAmount",
              "type": "uint256"
            },
            {
              "components": [
                {
                  "internalType": "address",
                  "name": "recipient",
                  "type": "address"
                },
                {
                  "internalType": "uint256",
                  "name": "amount",
                  "type": "uint256"
                },
                {
                  "internalType": "bytes",
                  "name": "feeData",
                  "type": "bytes"
                }
              ],
              "internalType": "struct LibNFTOrder.Fee[]",
              "name": "fees",
              "type": "tuple[]"
            },
            {
              "internalType": "contract IERC1155Token",
              "name": "erc1155Token",
              "type": "address"
            },
            {
              "internalType": "uint256",
              "name": "erc1155TokenId",
              "type": "uint256"
            },
            {
              "components": [
                {
                  "internalType": "contract IPropertyValidator",
                  "name": "propertyValidator",
                  "type": "address"
                },
                {
                  "internalType": "bytes",
                  "name": "propertyData",
                  "type": "bytes"
                }
              ],
              "internalType": "struct LibNFTOrder.Property[]",
              "name": "erc1155TokenProperties",
              "type": "tuple[]"
            },
            {
              "internalType": "uint128",
              "name": "erc1155TokenAmount",
              "type": "uint128"
            }
          ],
          "internalType": "struct LibNFTOrder.ERC1155Order",
          "name": "order",
          "type": "tuple"
        }
      ],
      "name": "getERC1155OrderHash",
      "outputs": [
        {
          "internalType": "bytes32",
          "name": "orderHash",
          "type": "bytes32"
        }
      ],
      "stateMutability": "view",
      "type": "function"
    },
    {
      "inputs": [
        {
          "components": [
            {
              "internalType": "enum LibNFTOrder.TradeDirection",
              "name": "direction",
              "type": "uint8"
            },
            {
              "internalType": "address",
              "name": "maker",
              "type": "address"
            },
            {
              "internalType": "address",
              "name": "taker",
              "type": "address"
            },
            {
              "internalType": "uint256",
              "name": "expiry",
              "type": "uint256"
            },
            {
              "internalType": "uint256",
              "name": "nonce",
              "type": "uint256"
            },
            {
              "internalType": "contract IERC20TokenV06",
              "name": "erc20Token",
              "type": "address"
            },
            {
              "internalType": "uint256",
              "name": "erc20TokenAmount",
              "type": "uint256"
            },
            {
              "components": [
                {
                  "internalType": "address",
                  "name": "recipient",
                  "type": "address"
                },
                {
                  "internalType": "uint256",
                  "name": "amount",
                  "type": "uint256"
                },
                {
                  "internalType": "bytes",
                  "name": "feeData",
                  "type": "bytes"
                }
              ],
              "internalType": "struct LibNFTOrder.Fee[]",
              "name": "fees",
              "type": "tuple[]"
            },
            {
              "internalType": "contract IERC1155Token",
              "name": "erc1155Token",
              "type": "address"
            },
            {
              "internalType": "uint256",
              "name": "erc1155TokenId",
              "type": "uint256"
            },
            {
              "components": [
                {
                  "internalType": "contract IPropertyValidator",
                  "name": "propertyValidator",
                  "type": "address"
                },
                {
                  "internalType": "bytes",
                  "name": "propertyData",
                  "type": "bytes"
                }
              ],
              "internalType": "struct LibNFTOrder.Property[]",
              "name": "erc1155TokenProperties",
              "type": "tuple[]"
            },
            {
              "internalType": "uint128",
              "name": "erc1155TokenAmount",
              "type": "uint128"
            }
          ],
          "internalType": "struct LibNFTOrder.ERC1155Order",
          "name": "order",
          "type": "tuple"
        }
      ],
      "name": "getERC1155OrderInfo",
      "outputs": [
        {
          "components": [
            {
              "internalType": "bytes32",
              "name": "orderHash",
              "type": "bytes32"
            },
            {
              "internalType": "enum LibNFTOrder.OrderStatus",
              "name": "status",
              "type": "uint8"
            },
            {
              "internalType": "uint128",
              "name": "orderAmount",
              "type": "uint128"
            },
            {
              "internalType": "uint128",
              "name": "remainingAmount",
              "type": "uint128"
            }
          ],
          "internalType": "struct LibNFTOrder.OrderInfo",
          "name": "orderInfo",
          "type": "tuple"
        }
      ],
      "stateMutability": "view",
      "type": "function"
    },
    {
      "inputs": [],
      "name": "migrate",
      "outputs": [
        {
          "internalType": "bytes4",
          "name": "success",
          "type": "bytes4"
        }
      ],
      "stateMutability": "nonpayable",
      "type": "function"
    },
    {
      "inputs": [
        {
          "internalType": "address",
          "name": "operator",
          "type": "address"
        },
        {
          "internalType": "address",
          "name": "",
          "type": "address"
        },
        {
          "internalType": "uint256",
          "name": "tokenId",
          "type": "uint256"
        },
        {
          "internalType": "uint256",
          "name": "value",
          "type": "uint256"
        },
        {
          "internalType": "bytes",
          "name": "data",
          "type": "bytes"
        }
      ],
      "name": "onERC1155Received",
      "outputs": [
        {
          "internalType": "bytes4",
          "name": "success",
          "type": "bytes4"
        }
      ],
      "stateMutability": "nonpayable",
      "type": "function"
    },
    {
      "inputs": [
        {
          "components": [
            {
              "internalType": "enum LibNFTOrder.TradeDirection",
              "name": "direction",
              "type": "uint8"
            },
            {
              "internalType": "address",
              "name": "maker",
              "type": "address"
            },
            {
              "internalType": "address",
              "name": "taker",
              "type": "address"
            },
            {
              "internalType": "uint256",
              "name": "expiry",
              "type": "uint256"
            },
            {
              "internalType": "uint256",
              "name": "nonce",
              "type": "uint256"
            },
            {
              "internalType": "contract IERC20TokenV06",
              "name": "erc20Token",
              "type": "address"
            },
            {
              "internalType": "uint256",
              "name": "erc20TokenAmount",
              "type": "uint256"
            },
            {
              "components": [
                {
                  "internalType": "address",
                  "name": "recipient",
                  "type": "address"
                },
                {
                  "internalType": "uint256",
                  "name": "amount",
                  "type": "uint256"
                },
                {
                  "internalType": "bytes",
                  "name": "feeData",
                  "type": "bytes"
                }
              ],
              "internalType": "struct LibNFTOrder.Fee[]",
              "name": "fees",
              "type": "tuple[]"
            },
            {
              "internalType": "contract IERC1155Token",
              "name": "erc1155Token",
              "type": "address"
            },
            {
              "internalType": "uint256",
              "name": "erc1155TokenId",
              "type": "uint256"
            },
            {
              "components": [
                {
                  "internalType": "contract IPropertyValidator",
                  "name": "propertyValidator",
                  "type": "address"
                },
                {
                  "internalType": "bytes",
                  "name": "propertyData",
                  "type": "bytes"
                }
              ],
              "internalType": "struct LibNFTOrder.Property[]",
              "name": "erc1155TokenProperties",
              "type": "tuple[]"
            },
            {
              "internalType": "uint128",
              "name": "erc1155TokenAmount",
              "type": "uint128"
            }
          ],
          "internalType": "struct LibNFTOrder.ERC1155Order",
          "name": "order",
          "type": "tuple"
        }
      ],
      "name": "preSignERC1155Order",
      "outputs": [],
      "stateMutability": "nonpayable",
      "type": "function"
    },
    {
      "inputs": [
        {
          "components": [
            {
              "internalType": "enum LibNFTOrder.TradeDirection",
              "name": "direction",
              "type": "uint8"
            },
            {
              "internalType": "address",
              "name": "maker",
              "type": "address"
            },
            {
              "internalType": "address",
              "name": "taker",
              "type": "address"
            },
            {
              "internalType": "uint256",
              "name": "expiry",
              "type": "uint256"
            },
            {
              "internalType": "uint256",
              "name": "nonce",
              "type": "uint256"
            },
            {
              "internalType": "contract IERC20TokenV06",
              "name": "erc20Token",
              "type": "address"
            },
            {
              "internalType": "uint256",
              "name": "erc20TokenAmount",
              "type": "uint256"
            },
            {
              "components": [
                {
                  "internalType": "address",
                  "name": "recipient",
                  "type": "address"
                },
                {
                  "internalType": "uint256",
                  "name": "amount",
                  "type": "uint256"
                },
                {
                  "internalType": "bytes",
                  "name": "feeData",
                  "type": "bytes"
                }
              ],
              "internalType": "struct LibNFTOrder.Fee[]",
              "name": "fees",
              "type": "tuple[]"
            },
            {
              "internalType": "contract IERC1155Token",
              "name": "erc1155Token",
              "type": "address"
            },
            {
              "internalType": "uint256",
              "name": "erc1155TokenId",
              "type": "uint256"
            },
            {
              "components": [
                {
                  "internalType": "contract IPropertyValidator",
                  "name": "propertyValidator",
                  "type": "address"
                },
                {
                  "internalType": "bytes",
                  "name": "propertyData",
                  "type": "bytes"
                }
              ],
              "internalType": "struct LibNFTOrder.Property[]",
              "name": "erc1155TokenProperties",
              "type": "tuple[]"
            },
            {
              "internalType": "uint128",
              "name": "erc1155TokenAmount",
              "type": "uint128"
            }
          ],
          "internalType": "struct LibNFTOrder.ERC1155Order",
          "name": "buyOrder",
          "type": "tuple"
        },
        {
          "components": [
            {
              "internalType": "enum LibSignature.SignatureType",
              "name": "signatureType",
              "type": "uint8"
            },
            {
              "internalType": "uint8",
              "name": "v",
              "type": "uint8"
            },
            {
              "internalType": "bytes32",
              "name": "r",
              "type": "bytes32"
            },
            {
              "internalType": "bytes32",
              "name": "s",
              "type": "bytes32"
            }
          ],
          "internalType": "struct LibSignature.Signature",
          "name": "signature",
          "type": "tuple"
        },
        {
          "internalType": "uint256",
          "name": "erc1155TokenId",
          "type": "uint256"
        },
        {
          "internalType": "uint128",
          "name": "erc1155SellAmount",
          "type": "uint128"
        },
        {
          "internalType": "bool",
          "name": "unwrapNativeToken",
          "type": "bool"
        },
        {
          "internalType": "bytes",
          "name": "callbackData",
          "type": "bytes"
        }
      ],
      "name": "sellERC1155",
      "outputs": [],
      "stateMutability": "nonpayable",
      "type": "function"
    },
    {
      "inputs": [
        {
          "components": [
            {
              "internalType": "enum LibNFTOrder.TradeDirection",
              "name": "direction",
              "type": "uint8"
            },
            {
              "internalType": "address",
              "name": "maker",
              "type": "address"
            },
            {
              "internalType": "address",
              "name": "taker",
              "type": "address"
            },
            {
              "internalType": "uint256",
              "name": "expiry",
              "type": "uint256"
            },
            {
              "internalType": "uint256",
              "name": "nonce",
              "type": "uint256"
            },
            {
              "internalType": "contract IERC20TokenV06",
              "name": "erc20Token",
              "type": "address"
            },
            {
              "internalType": "uint256",
              "name": "erc20TokenAmount",
              "type": "uint256"
            },
            {
              "components": [
                {
                  "internalType": "address",
                  "name": "recipient",
                  "type": "address"
                },
                {
                  "internalType": "uint256",
                  "name": "amount",
                  "type": "uint256"
                },
                {
                  "internalType": "bytes",
                  "name": "feeData",
                  "type": "bytes"
                }
              ],
              "internalType": "struct LibNFTOrder.Fee[]",
              "name": "fees",
              "type": "tuple[]"
            },
            {
              "internalType": "contract IERC1155Token",
              "name": "erc1155Token",
              "type": "address"
            },
            {
              "internalType": "uint256",
              "name": "erc1155TokenId",
              "type": "uint256"
            },
            {
              "components": [
                {
                  "internalType": "contract IPropertyValidator",
                  "name": "propertyValidator",
                  "type": "address"
                },
                {
                  "internalType": "bytes",
                  "name": "propertyData",
                  "type": "bytes"
                }
              ],
              "internalType": "struct LibNFTOrder.Property[]",
              "name": "erc1155TokenProperties",
              "type": "tuple[]"
            },
            {
              "internalType": "uint128",
              "name": "erc1155TokenAmount",
              "type": "uint128"
            }
          ],
          "internalType": "struct LibNFTOrder.ERC1155Order",
          "name": "order",
          "type": "tuple"
        },
        {
          "internalType": "uint256",
          "name": "erc1155TokenId",
          "type": "uint256"
        }
      ],
      "name": "validateERC1155OrderProperties",
      "outputs": [],
      "stateMutability": "view",
      "type": "function"
    },
    {
      "inputs": [
        {
          "components": [
            {
              "internalType": "enum LibNFTOrder.TradeDirection",
              "name": "direction",
              "type": "uint8"
            },
            {
              "internalType": "address",
              "name": "maker",
              "type": "address"
            },
            {
              "internalType": "address",
              "name": "taker",
              "type": "address"
            },
            {
              "internalType": "uint256",
              "name": "expiry",
              "type": "uint256"
            },
            {
              "internalType": "uint256",
              "name": "nonce",
              "type": "uint256"
            },
            {
              "internalType": "contract IERC20TokenV06",
              "name": "erc20Token",
              "type": "address"
            },
            {
              "internalType": "uint256",
              "name": "erc20TokenAmount",
              "type": "uint256"
            },
            {
              "components": [
                {
                  "internalType": "address",
                  "name": "recipient",
                  "type": "address"
                },
                {
                  "internalType": "uint256",
                  "name": "amount",
                  "type": "uint256"
                },
                {
                  "internalType": "bytes",
                  "name": "feeData",
                  "type": "bytes"
                }
              ],
              "internalType": "struct LibNFTOrder.Fee[]",
              "name": "fees",
              "type": "tuple[]"
            },
            {
              "internalType": "contract IERC1155Token",
              "name": "erc1155Token",
              "type": "address"
            },
            {
              "internalType": "uint256",
              "name": "erc1155TokenId",
              "type": "uint256"
            },
            {
              "components": [
                {
                  "internalType": "contract IPropertyValidator",
                  "name": "propertyValidator",
                  "type": "address"
                },
                {
                  "internalType": "bytes",
                  "name": "propertyData",
                  "type": "bytes"
                }
              ],
              "internalType": "struct LibNFTOrder.Property[]",
              "name": "erc1155TokenProperties",
              "type": "tuple[]"
            },
            {
              "internalType": "uint128",
              "name": "erc1155TokenAmount",
              "type": "uint128"
            }
          ],
          "internalType": "struct LibNFTOrder.ERC1155Order",
          "name": "order",
          "type": "tuple"
        },
        {
          "components": [
            {
              "internalType": "enum LibSignature.SignatureType",
              "name": "signatureType",
              "type": "uint8"
            },
            {
              "internalType": "uint8",
              "name": "v",
              "type": "uint8"
            },
            {
              "internalType": "bytes32",
              "name": "r",
              "type": "bytes32"
            },
            {
              "internalType": "bytes32",
              "name": "s",
              "type": "bytes32"
            }
          ],
          "internalType": "struct LibSignature.Signature",
          "name": "signature",
          "type": "tuple"
        }
      ],
      "name": "validateERC1155OrderSignature",
      "outputs": [],
      "stateMutability": "view",
      "type": "function"
    }
  ],
  "transactionHash": "0x44e098dbc98c4295526de1064ace1c7a557100ac52f0b98824ef01c488404f6f",
  "args": [
    "0x19aaD856cE8c4C7e813233b21d56dA97796cC052",
    "0x1FA6A37c64804C0D797bA6bC1955E50068FbF362"
  ],
  "numDeployments": 1,
  "solcInputHash": "011237655157f4d2198ab80c9f4857a8",
  "bytecode": "0x61010060405262000014600160008062000108565b60e0523480156200002457600080fd5b5060405162004f7838038062004f7883398101604081905262000047916200013a565b3060601b6080526040518290829082904690620000d1907f8b73c3c69bb8fe3d512ecc4cf759cc79239f7b179b0ffacaa9a75d522b39400f907f9e5dae0addaf20578aeb5d70341d092b53b4e14480ac5726438fd436df7ba427907f06c015bd22b4c69690933c1058878ebdfef31f9aaae40bbe86d8a09fe1b2972c908590879060200162000178565b60408051808303601f19018152919052805160209091012060a052505060601b6001600160601b03191660c05250620001bd915050565b6bffffffff0000000000000000604084901b1667ffffffff00000000602084901b161763ffffffff8216179392505050565b600080604083850312156200014d578182fd5b82516200015a81620001a4565b60208401519092506200016d81620001a4565b809150509250929050565b9485526020850193909352604084019190915260608301526001600160a01b0316608082015260a00190565b6001600160a01b0381168114620001ba57600080fd5b50565b60805160601c60a05160c05160601c60e051614d5262000226600039806102f35250806118e6528061194552806119c95280612329528061238b52806123b4528061241c5280612afc525080610e0952806110c852508061099052806115875250614d526000f3fe6080604052600436106100f35760003560e01c80637b757d971161008a578063a1865d6f11610059578063a1865d6f14610289578063a4f4d30d146102a9578063dab400f3146102bc578063f23a6e61146102d1576100f3565b80637b757d97146102145780637cdb54d81461023457806384680615146102475780638fd3ab8014610267576100f3565b80632ac6f62a116100c65780632ac6f62a146101855780634991fd72146101a55780636ae4b4f7146101d25780636e2eec9e146101f4576100f3565b8063031b905c146100f857806306d2596b146101235780630d32a531146101455780631de3a7ac14610165575b600080fd5b34801561010457600080fd5b5061010d6102f1565b60405161011a91906142a0565b60405180910390f35b34801561012f57600080fd5b5061014361013e366004613ee8565b610315565b005b34801561015157600080fd5b50610143610160366004613bf6565b61038b565b34801561017157600080fd5b5061010d610180366004613bc3565b6103ac565b34801561019157600080fd5b506101436101a0366004613e8a565b6103c7565b3480156101b157600080fd5b506101c56101c0366004613bc3565b6103dd565b60405161011a9190614b91565b3480156101de57600080fd5b506101e76105ae565b60405161011a91906144d3565b34801561020057600080fd5b5061014361020f366004613dea565b6105e7565b34801561022057600080fd5b5061014361022f366004613bc3565b610666565b610143610242366004613d66565b610792565b61025a610255366004613a30565b610802565b60405161011a919061425a565b34801561027357600080fd5b5061027c610b93565b60405161011a91906142e0565b34801561029557600080fd5b506101436102a4366004613b43565b610d54565b6101436102b7366004613ca8565b610d82565b3480156102c857600080fd5b5061010d610e07565b3480156102dd57600080fd5b5061027c6102ec36600461398b565b610e2b565b7f000000000000000000000000000000000000000000000000000000000000000081565b600160ff82161b80610325610f5f565b33600081815260019290920160209081526040808420600888901c8552909152918290208054909317909255517f4d5ea7da64f50a4a329921b8d2cab52dff4ebcc58b61d10ff839e28e914456849161037f918590614141565b60405180910390a15050565b6000610396836103ac565b90506103a781838560200151610f72565b505050565b60006103bf6103ba83611027565b6110c4565b90505b919050565b6103d96103d383611116565b82611122565b5050565b6103e56132d5565b6101608201516fffffffffffffffffffffffffffffffff16604082015261040b826103ac565b8152610140820151511580159061043d575060018251600181111561042c57fe5b14158061043d575061012082015115155b1561045e576020810160005b9081600381111561045657fe5b9052506103c2565b60018251600181111561046d57fe5b1480156104a7575060a082015173ffffffffffffffffffffffffffffffffffffffff1673eeeeeeeeeeeeeeeeeeeeeeeeeeeeeeeeeeeeeeee145b156104b757602081016000610449565b428260600151116104cd57602081016003610449565b60006104d7610f5f565b8251600090815260208290526040902080546101608601519293509091610513916fffffffffffffffffffffffffffffffff91821691166112f2565b6fffffffffffffffffffffffffffffffff9081166060850190815260208087015173ffffffffffffffffffffffffffffffffffffffff16600090815260018087018352604080832060808b01805160081c855294529091205491519251919360ff9093161b91161580610587575081811615155b1561059d57505060026020840152506103c29050565b505060016020840152509092915050565b6040518060400160405280600d81526020017f455243313135354f72646572730000000000000000000000000000000000000081525081565b61065e86866040518060c00160405280876fffffffffffffffffffffffffffffffff16815260200188815260200186151581526020013373ffffffffffffffffffffffffffffffffffffffff1681526020013373ffffffffffffffffffffffffffffffffffffffff16815260200185815250611359565b505050505050565b602081015173ffffffffffffffffffffffffffffffffffffffff1633146106c2576040517f08c379a00000000000000000000000000000000000000000000000000000000081526004016106b99061482b565b60405180910390fd5b60006106cd826103ac565b905060006106d9610f5f565b9050600181600001600084815260200190815260200160002060000160106101000a81548160ff0219169083151502179055507f5e91ddfeb7bf2e12f7e8ab017d2b63a9217f004a15a53346ad90353ec63d14e4836000015184602001518560400151866060015187608001518860a001518960c001518a60e001518b61010001518c61012001518d61014001518e61016001516040516107859c9b9a9998979695949392919061441f565b60405180910390a1505050565b600061079e47346113cc565b90506107d785856040518060600160405280876fffffffffffffffffffffffffffffffff16815260200134815260200186815250610d82565b47818110156107f6576107f66107f13483850301346113e5565b6114a0565b61065e338383036114a8565b6060855187511480156108155750865184145b8015610822575082518751145b610858576040517f08c379a00000000000000000000000000000000000000000000000000000000081526004016106b990614543565b865167ffffffffffffffff8111801561087057600080fd5b5060405190808252806020026020018201604052801561089a578160200160208202803683370190505b50905060006108a947346113cc565b905082156109825760005b885181101561097c576109568982815181106108cc57fe5b60200260200101518983815181106108e057fe5b602002602001015160405180606001604052808b8b878181106108ff57fe5b90506020020160208101906109149190613ecd565b6fffffffffffffffffffffffffffffffff16815260200161093547886113cc565b815260200189868151811061094657fe5b6020026020010151815250610d82565b600183828151811061096457fe5b911515602092830291909101909101526001016108b4565b50610b61565b60005b8851811015610b5f577f000000000000000000000000000000000000000000000000000000000000000073ffffffffffffffffffffffffffffffffffffffff1663a4f4d30d60e01b8a83815181106109d957fe5b60200260200101518a84815181106109ed57fe5b602002602001015160405180606001604052808c8c88818110610a0c57fe5b9050602002016020810190610a219190613ecd565b6fffffffffffffffffffffffffffffffff168152602001610a4247896113cc565b81526020018a8781518110610a5357fe5b6020026020010151815250604051602401610a7093929190614a59565b604080517fffffffffffffffffffffffffffffffffffffffffffffffffffffffffffffffe08184030181529181526020820180517bffffffffffffffffffffffffffffffffffffffffffffffffffffffff167fffffffff00000000000000000000000000000000000000000000000000000000909416939093179092529051610af991906140ec565b600060405180830381855af49150503d8060008114610b34576040519150601f19603f3d011682016040523d82523d6000602084013e610b39565b606091505b5050838281518110610b4757fe5b91151560209283029190910190910152600101610985565b505b4781811015610b7b57610b7b6107f18284033401346113e5565b610b87338383036114a8565b50509695505050505050565b6000610bbe7f6e2eec9e00000000000000000000000000000000000000000000000000000000611551565b610be77f7cdb54d800000000000000000000000000000000000000000000000000000000611551565b610c107f06d2596b00000000000000000000000000000000000000000000000000000000611551565b610c397f8468061500000000000000000000000000000000000000000000000000000000611551565b610c627ff23a6e6100000000000000000000000000000000000000000000000000000000611551565b610c8b7f7b757d9700000000000000000000000000000000000000000000000000000000611551565b610cb47f0d32a53100000000000000000000000000000000000000000000000000000000611551565b610cdd7f2ac6f62a00000000000000000000000000000000000000000000000000000000611551565b610d067f4991fd7200000000000000000000000000000000000000000000000000000000611551565b610d2f7f1de3a7ac00000000000000000000000000000000000000000000000000000000611551565b507f2c64c5ef0000000000000000000000000000000000000000000000000000000090565b60005b818110156103a757610d7a838383818110610d6e57fe5b90506020020135610315565b600101610d57565b6000610d97610d9085611116565b84846115e4565b90507f20cca81b0e269b265b3229d6b537da91ef475ca0ef55caed7dd30731700ba98d846000015185602001513387608001518860a00151868a61010001518b61012001518a600001516000604051610df99a9998979695949392919061439b565b60405180910390a150505050565b7f000000000000000000000000000000000000000000000000000000000000000081565b6000610e356132fe565b610e3d613363565b6000610e4b85870187613c43565b92509250925082610100015173ffffffffffffffffffffffffffffffffffffffff163373ffffffffffffffffffffffffffffffffffffffff1614610e9b57610e9b6107f133856101000151611a72565b610f3083836040518060c00160405280610eb48c611aa8565b6fffffffffffffffffffffffffffffffff168152602081018d9052851515604082015273ffffffffffffffffffffffffffffffffffffffff8f16606082015230608082015260a00160006040519080825280601f01601f191660200182016040528015610f28576020820181803683370190505b509052611359565b507ff23a6e61000000000000000000000000000000000000000000000000000000009998505050505050505050565b600080610f6c600a611ad0565b92915050565b600482516004811115610f8157fe5b1415610fd3576000610f91610f5f565b60008581526020919091526040902054700100000000000000000000000000000000900460ff16905080610fcd57610fcd6107f1836000611aeb565b506103a7565b6000610fdf8484611b21565b90508173ffffffffffffffffffffffffffffffffffffffff168173ffffffffffffffffffffffffffffffffffffffff1614611021576110216107f18383611aeb565b50505050565b600080611038836101400151611c72565b905060006110498460e00151611ea4565b9050602084101561105657fe5b7fffffffffffffffffffffffffffffffffffffffffffffffffffffffffffffffe08401805160e08601805161014090970180517f930490b1bcedd2e5139e22c761fafd52e533960197c2283f3922c7fd8c880be985529482529485526101a083209190925294905290525090565b60007f0000000000000000000000000000000000000000000000000000000000000000826040516020016110f9929190614108565b604051602081830303815290604052805190602001209050919050565b61111e61338c565b5090565b60018251600181111561113157fe5b14611168576040517f08c379a00000000000000000000000000000000000000000000000000000000081526004016106b990614714565b61014082015151611196578161012001518114611191576111916107f18284610120015161207e565b6103d9565b60005b826101400151518110156103a7576111af61343f565b83610140015182815181106111c057fe5b60200260200101519050600073ffffffffffffffffffffffffffffffffffffffff16816000015173ffffffffffffffffffffffffffffffffffffffff16141561120957506112ea565b805161010085015160208301516040517f1395c0f300000000000000000000000000000000000000000000000000000000815273ffffffffffffffffffffffffffffffffffffffff90931692631395c0f39261126c9290918891906004016141eb565b60006040518083038186803b15801561128457600080fd5b505afa925050508015611295575060015b6112e8573d8080156112c3576040519150601f19603f3d011682016040523d82523d6000602084013e6112c8565b606091505b506112e66107f18360000151876101000151878660200151866120b4565b505b505b600101611199565b6000826fffffffffffffffffffffffffffffffff16826fffffffffffffffffffffffffffffffff161115611353576113536107f16002856fffffffffffffffffffffffffffffffff16856fffffffffffffffffffffffffffffffff16612178565b50900390565b600061136e61136785611116565b848461221d565b84516020808701516060860151608089015160a08a01516101008b01519489015189516040519899507f20cca81b0e269b265b3229d6b537da91ef475ca0ef55caed7dd30731700ba98d98610df998978b939092909160009061439b565b600082821115611353576113536107f160028585612178565b60607ff066156ec319f3a42c58bb7c010e11f5c3620c829e5770398578cb4afa69970f838360405160240161141b929190614c61565b604080517fffffffffffffffffffffffffffffffffffffffffffffffffffffffffffffffe08184030181529190526020810180517bffffffffffffffffffffffffffffffffffffffffffffffffffffffff167fffffffff0000000000000000000000000000000000000000000000000000000090931692909217909152905092915050565b805160208201fd5b80156103d95760008273ffffffffffffffffffffffffffffffffffffffff16826040516114d49061413e565b60006040518083038185875af1925050503d8060008114611511576040519150601f19603f3d011682016040523d82523d6000602084013e611516565b606091505b50509050806103a7576040517f08c379a00000000000000000000000000000000000000000000000000000000081526004016106b990614771565b6040517f6eb224cb0000000000000000000000000000000000000000000000000000000081523090636eb224cb906115af9084907f00000000000000000000000000000000000000000000000000000000000000009060040161430d565b600060405180830381600087803b1580156115c957600080fd5b505af11580156115dd573d6000803e3d6000fd5b5050505050565b60006115ee6132d5565b6115f78561268a565b90506116058585833361269e565b80606001516fffffffffffffffffffffffffffffffff1683600001516fffffffffffffffffffffffffffffffff16111561164e5761164e6107f1826060015185600001516127a2565b8051835161165d9187916127d8565b80604001516fffffffffffffffffffffffffffffffff1683600001516fffffffffffffffffffffffffffffffff16141561169d578460c0015191506116db565b6116d883600001516fffffffffffffffffffffffffffffffff1682604001516fffffffffffffffffffffffffffffffff168760c00151612865565b91505b61170c85610100015186602001513388610120015187600001516fffffffffffffffffffffffffffffffff16612897565b6020830151604084015151156118865733301415611756576040517f08c379a00000000000000000000000000000000000000000000000000000000081526004016106b990614942565b815160408086015190517ff2b45c6f0000000000000000000000000000000000000000000000000000000081524792600092339263f2b45c6f9261179e9290916004016142a9565b602060405180830381600087803b1580156117b857600080fd5b505af11580156117cc573d6000803e3d6000fd5b505050506040513d601f19601f820116820180604052508101906117f09190613b83565b90506118066117ff47846113cc565b84906128a4565b92507fffffffff0000000000000000000000000000000000000000000000000000000081167ff2b45c6f0000000000000000000000000000000000000000000000000000000014611883576040517f08c379a00000000000000000000000000000000000000000000000000000000081526004016106b9906144e6565b50505b60a086015173ffffffffffffffffffffffffffffffffffffffff1673eeeeeeeeeeeeeeeeeeeeeeeeeeeeeeeeeeeeeeee14156118e4576118ca8660200151846114a8565b6118df868560000151846040015186856128c7565b611a69565b7f000000000000000000000000000000000000000000000000000000000000000073ffffffffffffffffffffffffffffffffffffffff168660a0015173ffffffffffffffffffffffffffffffffffffffff161415611a3d57828110611a0d577f000000000000000000000000000000000000000000000000000000000000000073ffffffffffffffffffffffffffffffffffffffff1663d0e30db0846040518263ffffffff1660e01b81526004016000604051808303818588803b1580156119ab57600080fd5b505af11580156119bf573d6000803e3d6000fd5b50505050506119f37f00000000000000000000000000000000000000000000000000000000000000008760200151856128fa565b611a08868560000151846040015186856128c7565b6118df565b611a218660a00151338860200151866129d4565b611a378633866000015185604001516000612ad3565b50611a69565b611a518660a00151338860200151866129d4565b611a678633866000015185604001516000612ad3565b505b50509392505050565b60607f9b0ee6d140042ea5f964d6cd0802e048ed0934dbf00d63f58640309c235d6ce1838360405160240161141b929190614167565b60006fffffffffffffffffffffffffffffffff82111561111e5761111e6107f1600384612e33565b6000608082600a811115611ae057fe5b600101901b92915050565b60607f84356db366796dc6e2aeb1ad74b631fe4e5ec6a650464da6059e9f95c8810a10838360405160240161141b929190614167565b6000611b2d8383612e50565b600282516004811115611b3c57fe5b1415611ba45760018383602001518460400151856060015160405160008152602001604052604051611b7194939291906142c2565b6020604051602081039080840390855afa158015611b93573d6000803e3d6000fd5b505050602060405103519050611c49565b600382516004811115611bb357fe5b1415611c495760007f19457468657265756d205369676e6564204d6573736167653a0a33320000000060005283601c52603c600020905060018184602001518560400151866060015160405160008152602001604052604051611c1994939291906142c2565b6020604051602081039080840390855afa158015611c3b573d6000803e3d6000fd5b505050602060405103519150505b73ffffffffffffffffffffffffffffffffffffffff8116610f6c57610f6c6107f1600585612f1f565b805160009080611ca4577fc5d2460186f7233c927e7db2dcc703c0e500b653ca82273b7bfad8045d85a4709150611e9e565b8060011415611da257611cb561343f565b83600081518110611cc257fe5b60200260200101519050600073ffffffffffffffffffffffffffffffffffffffff16816000015173ffffffffffffffffffffffffffffffffffffffff16148015611d0f5750602081015151155b15611d3c577f720ee400a9024f6a49768142c339bf09d2dd9056ab52d20fbe7165faba6e142d9250611d9c565b602080820151805190820120604080517f6292cf854241cb36887e639065eca63b3af9f7f70270cebeda4c29b6d3bc65e88152845173ffffffffffffffffffffffffffffffffffffffff1681850152908101919091526060812081522092505b50611e9e565b60608167ffffffffffffffff81118015611dbb57600080fd5b50604051908082528060200260200182016040528015611de5578160200160208202803683370190505b50905060005b82811015611e92577f6292cf854241cb36887e639065eca63b3af9f7f70270cebeda4c29b6d3bc65e8858281518110611e2057fe5b602002602001015160000151868381518110611e3857fe5b60200260200101516020015180519060200120604051602001611e5d93929190614c35565b60405160208183030381529060405280519060200120828281518110611e7f57fe5b6020908102919091010152600101611deb565b50602082810291012091505b50919050565b805160009080611ed6577fc5d2460186f7233c927e7db2dcc703c0e500b653ca82273b7bfad8045d85a4709150611e9e565b8060011415611f7557611ee7613457565b83600081518110611ef457fe5b60200260200101519050600081604001518051906020012090506040517fe68c29f1b4e8cce0bbcac76eb1334bdc1dc1f293a517c90e9e532340e1e941158152825173ffffffffffffffffffffffffffffffffffffffff16602082015260208301516040820152816060820152608081208152602081209450505050611e9e565b60608167ffffffffffffffff81118015611f8e57600080fd5b50604051908082528060200260200182016040528015611fb8578160200160208202803683370190505b50905060005b82811015611e92577fe68c29f1b4e8cce0bbcac76eb1334bdc1dc1f293a517c90e9e532340e1e94115858281518110611ff357fe5b60200260200101516000015186838151811061200b57fe5b60200260200101516020015187848151811061202357fe5b602002602001015160400151805190602001206040516020016120499493929190614c04565b6040516020818303038152906040528051906020012082828151811061206b57fe5b6020908102919091010152600101611fbe565b60607f3a0e82ab33a6ded59a82e996d14f78373afacfa934ad72bb76427beb2c8abd40838360405160240161141b929190614c61565b60607f409690f4d9f5014a9e8b0bc8995bfa0621e9da9daa9cd07a7c17d83cd3c4b59686868686866040516024016120f095949392919061418e565b604080517fffffffffffffffffffffffffffffffffffffffffffffffffffffffffffffffe08184030181529190526020810180517bffffffffffffffffffffffffffffffffffffffffffffffffffffffff167fffffffff0000000000000000000000000000000000000000000000000000000090931692909217909152905095945050505050565b606063e946c1bb60e01b84848460405160240161219793929190614355565b604080517fffffffffffffffffffffffffffffffffffffffffffffffffffffffffffffffe08184030181529190526020810180517bffffffffffffffffffffffffffffffffffffffffffffffffffffffff167fffffffff000000000000000000000000000000000000000000000000000000009093169290921790915290509392505050565b60006122276132d5565b6122308561268a565b905061224785858386606001518760200151612f55565b80606001516fffffffffffffffffffffffffffffffff1683600001516fffffffffffffffffffffffffffffffff161115612290576122906107f1826060015185600001516127a2565b8051835161229f9187916127d8565b80604001516fffffffffffffffffffffffffffffffff1683600001516fffffffffffffffffffffffffffffffff1614156122df578460c00151915061231d565b61231a83600001516fffffffffffffffffffffffffffffffff1682604001516fffffffffffffffffffffffffffffffff168760c001516130c6565b91505b826040015115612496577f000000000000000000000000000000000000000000000000000000000000000073ffffffffffffffffffffffffffffffffffffffff168560a0015173ffffffffffffffffffffffffffffffffffffffff16146123af576123af6107f18660a001517f00000000000000000000000000000000000000000000000000000000000000006130d6565b6123df7f0000000000000000000000000000000000000000000000000000000000000000866020015130856129d4565b6040517f2e1a7d4d00000000000000000000000000000000000000000000000000000000815273ffffffffffffffffffffffffffffffffffffffff7f00000000000000000000000000000000000000000000000000000000000000001690632e1a7d4d906124519085906004016142a0565b600060405180830381600087803b15801561246b57600080fd5b505af115801561247f573d6000803e3d6000fd5b505050506124918360600151836114a8565b6124ae565b6124ae8560a0015186602001518560600151856129d4565b60a0830151511561263c57606083015173ffffffffffffffffffffffffffffffffffffffff1630141561250d576040517f08c379a00000000000000000000000000000000000000000000000000000000081526004016106b9906148e5565b6060830151815160a08501516040517ff2b45c6f00000000000000000000000000000000000000000000000000000000815260009373ffffffffffffffffffffffffffffffffffffffff169263f2b45c6f9261256b926004016142a9565b602060405180830381600087803b15801561258557600080fd5b505af1158015612599573d6000803e3d6000fd5b505050506040513d601f19601f820116820180604052508101906125bd9190613b83565b90507fffffffff0000000000000000000000000000000000000000000000000000000081167ff2b45c6f000000000000000000000000000000000000000000000000000000001461263a576040517f08c379a00000000000000000000000000000000000000000000000000000000081526004016106b9906146b7565b505b61267085610100015184608001518760200151866020015187600001516fffffffffffffffffffffffffffffffff16612897565b611a69858660200151856000015184604001516000612ad3565b6126926132d5565b6103bf6101c08361310c565b6000845160018111156126ad57fe5b146126e4576040517f08c379a00000000000000000000000000000000000000000000000000000000081526004016106b990614888565b604084015173ffffffffffffffffffffffffffffffffffffffff161580159061273d57508073ffffffffffffffffffffffffffffffffffffffff16846040015173ffffffffffffffffffffffffffffffffffffffff1614155b15612753576127536107f1828660400151613114565b60018260200151600381111561276557fe5b1461278f5761278f6107f1856020015186608001518560200151600381111561278a57fe5b61314a565b6110218260000151848660200151610f72565b60607f4a5879850ad3b01848624d9559668b5a30a921c62ed2e7c3301591f9e7899a76838360405160240161141b929190614be1565b60006127e2610f5f565b6000848152602082905260409020549091506fffffffffffffffffffffffffffffffff9081169083820116811061281557fe5b6000938452602091909152604090922080547fffffffffffffffffffffffffffffffff0000000000000000000000000000000016919092016fffffffffffffffffffffffffffffffff1617905550565b600061288f836128896128798260016113cc565b6128838887613182565b906128a4565b906131b3565b949350505050565b6115dd85858585856131dd565b6000828201838110156128c0576128c06107f160008686612178565b9392505050565b60006128d7863087876001612ad3565b90506128e383826128a4565b92508183111561065e5761065e6107f184846113e5565b73ffffffffffffffffffffffffffffffffffffffff831630141561294a576040517f08c379a00000000000000000000000000000000000000000000000000000000081526004016106b99061499f565b6040517fa9059cbb00000000000000000000000000000000000000000000000000000000815273ffffffffffffffffffffffffffffffffffffffff83166004820152816024820152602081604483600073ffffffffffffffffffffffffffffffffffffffff89165af13d6001835114602082101516811517821691508161065e57806000843e8083fd5b73ffffffffffffffffffffffffffffffffffffffff8416301415612a24576040517f08c379a00000000000000000000000000000000000000000000000000000000081526004016106b99061499f565b6040517f23b872dd00000000000000000000000000000000000000000000000000000000815273ffffffffffffffffffffffffffffffffffffffff8416600482015273ffffffffffffffffffffffffffffffffffffffff83166024820152816044820152602081606483600073ffffffffffffffffffffffffffffffffffffffff8a165af13d60018351146020821015168115178216915081612aca57806000843e8083fd5b50505050505050565b60008115612b8b5773ffffffffffffffffffffffffffffffffffffffff85163014612afa57fe5b7f000000000000000000000000000000000000000000000000000000000000000073ffffffffffffffffffffffffffffffffffffffff168660a0015173ffffffffffffffffffffffffffffffffffffffff161480612b85575060a086015173ffffffffffffffffffffffffffffffffffffffff1673eeeeeeeeeeeeeeeeeeeeeeeeeeeeeeeeeeeeeeee145b612b8b57fe5b60005b8660e0015151811015612e2957612ba3613457565b8760e001518281518110612bb357fe5b602002602001015190503073ffffffffffffffffffffffffffffffffffffffff16816000015173ffffffffffffffffffffffffffffffffffffffff161415612c27576040517f08c379a00000000000000000000000000000000000000000000000000000000081526004016106b9906147ce565b6000856fffffffffffffffffffffffffffffffff16876fffffffffffffffffffffffffffffffff161415612c6057506020810151612c96565b612c93876fffffffffffffffffffffffffffffffff16876fffffffffffffffffffffffffffffffff1684602001516130c6565b90505b80612ca2575050612e21565b8415612cb9578151612cb490826114a8565b612ccd565b612ccd8960a00151898460000151846129d4565b60408201515115612e1257815160009073ffffffffffffffffffffffffffffffffffffffff166330787dd187612d07578b60a00151612d1d565b73eeeeeeeeeeeeeeeeeeeeeeeeeeeeeeeeeeeeeeee5b8486604001516040518463ffffffff1660e01b8152600401612d41939291906141eb565b602060405180830381600087803b158015612d5b57600080fd5b505af1158015612d6f573d6000803e3d6000fd5b505050506040513d601f19601f82011682018060405250810190612d939190613b83565b90507fffffffff0000000000000000000000000000000000000000000000000000000081167f30787dd10000000000000000000000000000000000000000000000000000000014612e10576040517f08c379a00000000000000000000000000000000000000000000000000000000081526004016106b9906145fd565b505b612e1c84826128a4565b935050505b600101612b8e565b5095945050505050565b606063c996af7b60e01b838360405160240161141b929190614376565b60408101517ffffffffffffffffffffffffffffffffebaaedce6af48a03bbfd25e8cd0364141111580612ea7575060608101517f7fffffffffffffffffffffffffffffff5d576e7357a4501ddfe92f46681b20a111155b15612eba57612eba6107f1600584612f1f565b600081516004811115612ec957fe5b1415612edd57612edd6107f1600384612f1f565b600181516004811115612eec57fe5b1415612f0057612f006107f1600084612f1f565b600481516004811115612f0f57fe5b14156103d9576103d96107f16002845b60607ff18f11f3027e735c758137924b262d4d3aff0037dcd785aca3c699fa05d960bd838360405160240161141b92919061438d565b600185516001811115612f6457fe5b14612f9b576040517f08c379a00000000000000000000000000000000000000000000000000000000081526004016106b99061465a565b60a085015173ffffffffffffffffffffffffffffffffffffffff1673eeeeeeeeeeeeeeeeeeeeeeeeeeeeeeeeeeeeeeee1415613003576040517f08c379a00000000000000000000000000000000000000000000000000000000081526004016106b9906145a0565b604085015173ffffffffffffffffffffffffffffffffffffffff161580159061305c57508173ffffffffffffffffffffffffffffffffffffffff16856040015173ffffffffffffffffffffffffffffffffffffffff1614155b15613072576130726107f1838760400151613114565b60018360200151600381111561308457fe5b146130a9576130a96107f1866020015187608001518660200151600381111561278a57fe5b6130b38582611122565b6115dd8360000151858760200151610f72565b600061288f836128898685613182565b60607f035a4cad8d6eddf7c418e1bf06082335925e99c1e1c08596b45ea79896833d73838360405160240161141b929190614167565b61111e6132fe565b60607f95d9ecc19fc066a15ea87d62b14d6e6f74032bbb37cecf6f42cb5ae9e2b29820838360405160240161141b929190614167565b60607f03174b9cc303cd904c8eab3eb42c9a7f59293ef5eceb9fe1c27da0778ad1613884848460405160240161219793929190614229565b60008261319157506000610f6c565b8282028284828161319e57fe5b04146128c0576128c06107f160018686612178565b6000816131c9576131c96107f160038585612178565b60008284816131d457fe5b04949350505050565b73ffffffffffffffffffffffffffffffffffffffff851630141561322d576040517f08c379a00000000000000000000000000000000000000000000000000000000081526004016106b9906149fc565b6040517ff242432a00000000000000000000000000000000000000000000000000000000815273ffffffffffffffffffffffffffffffffffffffff8516600482015273ffffffffffffffffffffffffffffffffffffffff8416602482015282604482015281606482015260a06084820152600060a482015260008060c483600073ffffffffffffffffffffffffffffffffffffffff8b165af180612aca573d806000843e8083fd5b604080516080810190915260008082526020820190815260006020820181905260409091015290565b60408051610180810190915280600081526000602082018190526040820181905260608083018290526080830182905260a0830182905260c0830182905260e08301819052610100830182905261012083018290526101408301526101609091015290565b604080516080810190915280600081526000602082018190526040820181905260609091015290565b6040805161016081019091528060008152602001600073ffffffffffffffffffffffffffffffffffffffff168152602001600073ffffffffffffffffffffffffffffffffffffffff1681526020016000815260200160008152602001600073ffffffffffffffffffffffffffffffffffffffff1681526020016000815260200160608152602001600073ffffffffffffffffffffffffffffffffffffffff16815260200160008152602001606081525090565b60408051808201909152600081526060602082015290565b6040518060600160405280600073ffffffffffffffffffffffffffffffffffffffff16815260200160008152602001606081525090565b8035610f6c81614cfa565b600082601f8301126134a9578081fd5b81356134bc6134b782614c96565b614c6f565b818152915060208083019084810160005b848110156134f6576134e4888484358a0101613763565b845292820192908201906001016134cd565b505050505092915050565b600082601f830112613511578081fd5b813561351f6134b782614c96565b818152915060208083019084810160005b848110156134f657813587016060807fffffffffffffffffffffffffffffffffffffffffffffffffffffffffffffffe0838c0301121561356f57600080fd5b61357881614c6f565b6135848b87850161348e565b815260408381013587830152918301359167ffffffffffffffff8311156135aa57600080fd5b6135b88c8885870101613763565b90820152865250509282019290820190600101613530565b600082601f8301126135e0578081fd5b81356135ee6134b782614c96565b818152915060208083019084810160005b848110156134f657813587016040807fffffffffffffffffffffffffffffffffffffffffffffffffffffffffffffffe0838c0301121561363e57600080fd5b61364781614c6f565b8583013561365481614cfa565b8152908201359067ffffffffffffffff82111561367057600080fd5b61367e8b8784860101613763565b818701528652505092820192908201906001016135ff565b600082601f8301126136a6578081fd5b81356136b46134b782614c96565b81815291506020808301908481016080808502870183018810156136d757600080fd5b60005b858110156136fe576136ec8984613908565b855293830193918101916001016136da565b50505050505092915050565b60008083601f84011261371b578182fd5b50813567ffffffffffffffff811115613732578182fd5b602083019150836020808302850101111561374c57600080fd5b9250929050565b80358015158114610f6c57600080fd5b600082601f830112613773578081fd5b813567ffffffffffffffff811115613789578182fd5b6137ba60207fffffffffffffffffffffffffffffffffffffffffffffffffffffffffffffffe0601f84011601614c6f565b91508082528360208285010111156137d157600080fd5b8060208401602084013760009082016020015292915050565b803560028110610f6c57600080fd5b600061018080838503121561380c578182fd5b61381581614c6f565b91505061382283836137ea565b8152613831836020840161348e565b6020820152613843836040840161348e565b604082015260608201356060820152608082013560808201526138698360a0840161348e565b60a082015260c082013560c082015260e082013567ffffffffffffffff8082111561389357600080fd5b61389f85838601613501565b60e084015261010091506138b58583860161348e565b8284015261012091508184013582840152610140915081840135818111156138dc57600080fd5b6138e8868287016135d0565b838501525050506101606138fe8482850161396b565b9082015292915050565b600060808284031215613919578081fd5b6139236080614c6f565b905081356005811061393457600080fd5b8152602082013560ff8116811461394a57600080fd5b80602083015250604082013560408201526060820135606082015292915050565b80356fffffffffffffffffffffffffffffffff81168114610f6c57600080fd5b60008060008060008060a087890312156139a3578182fd5b86356139ae81614cfa565b955060208701356139be81614cfa565b94506040870135935060608701359250608087013567ffffffffffffffff808211156139e8578384fd5b818901915089601f8301126139fb578384fd5b813581811115613a09578485fd5b8a6020828501011115613a1a578485fd5b6020830194508093505050509295509295509295565b60008060008060008060a08789031215613a48578384fd5b863567ffffffffffffffff80821115613a5f578586fd5b818901915089601f830112613a72578586fd5b8135613a806134b782614c96565b818152602080820191908501895b84811015613abb57613aa68f602084358a01016137f9565b84526020938401939190910190600101613a8e565b50909a505050506020890135915080821115613ad5578586fd5b613ae18a838b01613696565b96506040890135915080821115613af6578586fd5b613b028a838b0161370a565b90965094506060890135915080821115613b1a578384fd5b50613b2789828a01613499565b925050613b378860808901613753565b90509295509295509295565b60008060208385031215613b55578182fd5b823567ffffffffffffffff811115613b6b578283fd5b613b778582860161370a565b90969095509350505050565b600060208284031215613b94578081fd5b81517fffffffff00000000000000000000000000000000000000000000000000000000811681146128c0578182fd5b600060208284031215613bd4578081fd5b813567ffffffffffffffff811115613bea578182fd5b61288f848285016137f9565b60008060a08385031215613c08578182fd5b823567ffffffffffffffff811115613c1e578283fd5b613c2a858286016137f9565b925050613c3a8460208501613908565b90509250929050565b600080600060c08486031215613c57578081fd5b833567ffffffffffffffff811115613c6d578182fd5b613c79868287016137f9565b935050613c898560208601613908565b915060a08401358015158114613c9d578182fd5b809150509250925092565b600080600060c08486031215613cbc578081fd5b833567ffffffffffffffff80821115613cd3578283fd5b613cdf878388016137f9565b9450613cee8760208801613908565b935060a0860135915080821115613d03578283fd5b9085019060608288031215613d16578283fd5b613d206060614c6f565b613d2a888461396b565b815260208301356020820152604083013582811115613d47578485fd5b613d5389828601613763565b6040830152508093505050509250925092565b60008060008060e08587031215613d7b578182fd5b843567ffffffffffffffff80821115613d92578384fd5b613d9e888389016137f9565b9550613dad8860208901613908565b9450613dbc8860a0890161396b565b935060c0870135915080821115613dd1578283fd5b50613dde87828801613763565b91505092959194509250565b6000806000806000806101208789031215613e03578384fd5b863567ffffffffffffffff80821115613e1a578586fd5b613e268a838b016137f9565b9750613e358a60208b01613908565b965060a08901359550613e4b8a60c08b0161396b565b9450613e5a8a60e08b01613753565b9350610100890135915080821115613e70578283fd5b50613e7d89828a01613763565b9150509295509295509295565b60008060408385031215613e9c578182fd5b823567ffffffffffffffff811115613eb2578283fd5b613ebe858286016137f9565b95602094909401359450505050565b600060208284031215613ede578081fd5b6128c0838361396b565b600060208284031215613ef9578081fd5b5035919050565b73ffffffffffffffffffffffffffffffffffffffff169052565b6000815180845260208085018081965082840281019150828601855b85811015613f965782840389528151805173ffffffffffffffffffffffffffffffffffffffff1685528581015186860152604090810151606091860182905290613f8281870183614013565b9a87019a9550505090840190600101613f36565b5091979650505050505050565b6000815180845260208085018081965082840281019150828601855b85811015613f965782840389528151805173ffffffffffffffffffffffffffffffffffffffff1685528501516040868601819052613fff81870183614013565b9a87019a9550505090840190600101613fbf565b6000815180845261402b816020860160208601614cc1565b601f017fffffffffffffffffffffffffffffffffffffffffffffffffffffffffffffffe0169290920160200192915050565b6002811061406757fe5b9052565b60006fffffffffffffffffffffffffffffffff82511683526020820151602084015260408201516060604085015261288f6060850182614013565b8051600581106140b257fe5b825260208181015160ff169083015260408082015190830152606090810151910152565b6fffffffffffffffffffffffffffffffff169052565b600082516140fe818460208701614cc1565b9190910192915050565b7f190100000000000000000000000000000000000000000000000000000000000081526002810192909252602282015260420190565b90565b73ffffffffffffffffffffffffffffffffffffffff929092168252602082015260400190565b73ffffffffffffffffffffffffffffffffffffffff92831681529116602082015260400190565b600073ffffffffffffffffffffffffffffffffffffffff808816835280871660208401525084604083015260a060608301526141cd60a0830185614013565b82810360808401526141df8185614013565b98975050505050505050565b600073ffffffffffffffffffffffffffffffffffffffff85168252836020830152606060408301526142206060830184614013565b95945050505050565b73ffffffffffffffffffffffffffffffffffffffff939093168352602083019190915260ff16604082015260600190565b6020808252825182820181905260009190848201906040850190845b81811015614294578351151583529284019291840191600101614276565b50909695505050505050565b90815260200190565b60008382526040602083015261288f6040830184614013565b93845260ff9290921660208401526040830152606082015260800190565b7fffffffff0000000000000000000000000000000000000000000000000000000091909116815260200190565b7fffffffff0000000000000000000000000000000000000000000000000000000092909216825273ffffffffffffffffffffffffffffffffffffffff16602082015260400190565b6060810161436285614ced565b938152602081019290925260409091015290565b6040810161438384614ced565b9281526020015290565b604081016006841061438357fe5b61014081016143a98c614cb6565b825273ffffffffffffffffffffffffffffffffffffffff9a8b166020830152988a1660408201526060810197909752948816608087015260a086019390935290861660c085015260e08401526fffffffffffffffffffffffffffffffff1661010083015290921661012090920191909152919050565b600061018061442d8f614cb6565b835273ffffffffffffffffffffffffffffffffffffffff808f166020850152808e1660408501528c60608501528b6080850152808b1660a08501528960c08501528160e08501526144808285018a613f1a565b915080881661010085015250856101208401528281036101408401526144a68186613fa3565b9150506fffffffffffffffffffffffffffffffff83166101608301529d9c50505050505050505050505050565b6000602082526128c06020830184614013565b60208082526022908201527f4e46544f72646572733a3a5f6275794e46542f43414c4c4241434b5f4641494c60408201527f4544000000000000000000000000000000000000000000000000000000000000606082015260800190565b6020808252603c908201527f455243313135354f7264657273466561747572653a3a6261746368427579455260408201527f4331313535732f41525241595f4c454e4754485f4d49534d4154434800000000606082015260800190565b60208082526035908201527f4e46544f72646572733a3a5f76616c69646174654275794f726465722f4e415460408201527f4956455f544f4b454e5f4e4f545f414c4c4f5745440000000000000000000000606082015260800190565b60208082526023908201527f4e46544f72646572733a3a5f706179466565732f43414c4c4241434b5f46414960408201527f4c45440000000000000000000000000000000000000000000000000000000000606082015260800190565b60208082526032908201527f4e46544f72646572733a3a5f76616c69646174654275794f726465722f57524f60408201527f4e475f54524144455f444952454354494f4e0000000000000000000000000000606082015260800190565b60208082526023908201527f4e46544f72646572733a3a5f73656c6c4e46542f43414c4c4241434b5f46414960408201527f4c45440000000000000000000000000000000000000000000000000000000000606082015260800190565b60208082526039908201527f4e46544f72646572733a3a5f76616c69646174654f7264657250726f7065727460408201527f6965732f57524f4e475f54524144455f444952454354494f4e00000000000000606082015260800190565b6020808252602f908201527f466978696e546f6b656e5370656e6465723a3a5f7472616e736665724574682f60408201527f5452414e534645525f4641494c45440000000000000000000000000000000000606082015260800190565b60208082526036908201527f4e46544f72646572733a3a5f706179466565732f524543495049454e545f434160408201527f4e4e4f545f42455f45584348414e47455f50524f585900000000000000000000606082015260800190565b60208082526038908201527f455243313135354f7264657273466561747572653a3a7072655369676e45524360408201527f313135354f726465722f4d414b45525f4d49534d415443480000000000000000606082015260800190565b60208082526033908201527f4e46544f72646572733a3a5f76616c696461746553656c6c4f726465722f575260408201527f4f4e475f54524144455f444952454354494f4e00000000000000000000000000606082015260800190565b60208082526028908201527f4e46544f72646572733a3a5f73656c6c4e46542f43414e4e4f545f43414c4c4260408201527f41434b5f53454c46000000000000000000000000000000000000000000000000606082015260800190565b60208082526027908201527f4e46544f72646572733a3a5f6275794e46542f43414e4e4f545f43414c4c424160408201527f434b5f53454c4600000000000000000000000000000000000000000000000000606082015260800190565b60208082526024908201527f466978696e546f6b656e5370656e6465722f43414e4e4f545f494e564f4b455f60408201527f53454c4600000000000000000000000000000000000000000000000000000000606082015260800190565b60208082526026908201527f466978696e455243313135355370656e6465722f43414e4e4f545f494e564f4b60408201527f455f53454c460000000000000000000000000000000000000000000000000000606082015260800190565b600060c08252614a6d60c08301865161405d565b6020850151614a7f60e0840182613f00565b506040850151610100614a9481850183613f00565b60608701519150610120828186015260808801519250610140838187015260a08901519350610160614ac881880186613f00565b60c08a01519450610180858189015260e08b01519550806101a089015250614af4610240880186613f1a565b938a0151939450614b096101c0880185613f00565b828a01516101e0880152818a015193507fffffffffffffffffffffffffffffffffffffffffffffffffffffffffffffff4087860301610200880152614b4e8585613fa3565b9450808a01519350505050614b676102208501826140d6565b50614b7560208401866140a6565b82810360a0840152614b87818561406b565b9695505050505050565b8151815260208201516080820190614ba881614ced565b8060208401525060408301516fffffffffffffffffffffffffffffffff8082166040850152806060860151166060850152505092915050565b6fffffffffffffffffffffffffffffffff92831681529116602082015260400190565b93845273ffffffffffffffffffffffffffffffffffffffff9290921660208401526040830152606082015260800190565b92835273ffffffffffffffffffffffffffffffffffffffff919091166020830152604082015260600190565b918252602082015260400190565b60405181810167ffffffffffffffff81118282101715614c8e57600080fd5b604052919050565b600067ffffffffffffffff821115614cac578081fd5b5060209081020190565b80600281106103c257fe5b60005b83811015614cdc578181015183820152602001614cc4565b838111156110215750506000910152565b60048110614cf757fe5b50565b73ffffffffffffffffffffffffffffffffffffffff81168114614cf757600080fdfea26469706673582212208f6ee80cf42a5d7280ba7c365fb76ea9d0cfed4b8ad020087d3b7740fb51278164736f6c634300060c0033",
  "devdoc": {
    "details": "Feature for interacting with ERC1155 orders.",
    "kind": "dev",
    "methods": {
      "batchBuyERC1155s((uint8,address,address,uint256,uint256,address,uint256,(address,uint256,bytes)[],address,uint256,(address,bytes)[],uint128)[],(uint8,uint8,bytes32,bytes32)[],uint128[],bytes[],bool)": {
        "details": "Buys multiple ERC1155 assets by filling the      given orders.",
        "params": {
          "callbackData": "The data (if any) to pass to the taker        callback for each order. Refer to the `callbackData`        parameter to for `buyERC1155`.",
          "erc1155FillAmounts": "The amounts of the ERC1155 assets        to buy for each order.",
          "revertIfIncomplete": "If true, reverts if this        function fails to fill any individual order.",
          "sellOrders": "The ERC1155 sell orders.",
          "signatures": "The order signatures."
        },
        "returns": {
          "successes": "An array of booleans corresponding to whether         each order in `orders` was successfully filled."
        }
      },
      "batchCancelERC1155Orders(uint256[])": {
        "details": "Cancel multiple ERC1155 orders by their nonces. The caller      should be the maker of the orders. Silently succeeds if      an order with the same nonce has already been filled or      cancelled.",
        "params": {
          "orderNonces": "The order nonces."
        }
      },
      "buyERC1155((uint8,address,address,uint256,uint256,address,uint256,(address,uint256,bytes)[],address,uint256,(address,bytes)[],uint128),(uint8,uint8,bytes32,bytes32),uint128,bytes)": {
        "details": "Buys an ERC1155 asset by filling the given order.",
        "params": {
          "callbackData": "If this parameter is non-zero, invokes        `zeroExERC1155OrderCallback` on `msg.sender` after        the ERC1155 asset has been transferred to `msg.sender`        but before transferring the ERC20 tokens to the seller.        Native tokens acquired during the callback can be used        to fill the order.",
          "erc1155BuyAmount": "The amount of the ERC1155 asset        to buy.",
          "sellOrder": "The ERC1155 sell order.",
          "signature": "The order signature."
        }
      },
      "cancelERC1155Order(uint256)": {
        "details": "Cancel a single ERC1155 order by its nonce. The caller      should be the maker of the order. Silently succeeds if      an order with the same nonce has already been filled or      cancelled.",
        "params": {
          "orderNonce": "The order nonce."
        }
      },
      "getERC1155OrderHash((uint8,address,address,uint256,uint256,address,uint256,(address,uint256,bytes)[],address,uint256,(address,bytes)[],uint128))": {
        "details": "Get the EIP-712 hash of an ERC1155 order.",
        "params": {
          "order": "The ERC1155 order."
        },
        "returns": {
          "orderHash": "The order hash."
        }
      },
      "getERC1155OrderInfo((uint8,address,address,uint256,uint256,address,uint256,(address,uint256,bytes)[],address,uint256,(address,bytes)[],uint128))": {
        "details": "Get the order info for an ERC1155 order.",
        "params": {
          "order": "The ERC1155 order."
        },
        "returns": {
          "orderInfo": "Info about the order."
        }
      },
      "migrate()": {
        "details": "Initialize and register this feature.      Should be delegatecalled by `Migrate.migrate()`.",
        "returns": {
          "success": "`LibMigrate.SUCCESS` on success."
        }
      },
      "onERC1155Received(address,address,uint256,uint256,bytes)": {
        "details": "Callback for the ERC1155 `safeTransferFrom` function.      This callback can be used to sell an ERC1155 asset if      a valid ERC1155 order, signature and `unwrapNativeToken`      are encoded in `data`. This allows takers to sell their      ERC1155 asset without first calling `setApprovalForAll`.",
        "params": {
          "data": "Additional data with no specified format. If a        valid ERC1155 order, signature and `unwrapNativeToken`        are encoded in `data`, this function will try to fill        the order using the received asset.",
          "operator": "The address which called `safeTransferFrom`.",
          "tokenId": "The ID of the asset being transferred.",
          "value": "The amount being transferred."
        },
        "returns": {
          "success": "The selector of this function (0xf23a6e61),         indicating that the callback succeeded."
        }
      },
      "preSignERC1155Order((uint8,address,address,uint256,uint256,address,uint256,(address,uint256,bytes)[],address,uint256,(address,bytes)[],uint128))": {
        "details": "Approves an ERC1155 order on-chain. After pre-signing      the order, the `PRESIGNED` signature type will become      valid for that order and signer.",
        "params": {
          "order": "An ERC1155 order."
        }
      },
      "sellERC1155((uint8,address,address,uint256,uint256,address,uint256,(address,uint256,bytes)[],address,uint256,(address,bytes)[],uint128),(uint8,uint8,bytes32,bytes32),uint256,uint128,bool,bytes)": {
        "details": "Sells an ERC1155 asset to fill the given order.",
        "params": {
          "buyOrder": "The ERC1155 buy order.",
          "callbackData": "If this parameter is non-zero, invokes        `zeroExERC1155OrderCallback` on `msg.sender` after        the ERC20 tokens have been transferred to `msg.sender`        but before transferring the ERC1155 asset to the buyer.",
          "erc1155SellAmount": "The amount of the ERC1155 asset        to sell.",
          "erc1155TokenId": "The ID of the ERC1155 asset being        sold. If the given order specifies properties,        the asset must satisfy those properties. Otherwise,        it must equal the tokenId in the order.",
          "signature": "The order signature from the maker.",
          "unwrapNativeToken": "If this parameter is true and the        ERC20 token of the order is e.g. WETH, unwraps the        token before transferring it to the taker."
        }
      },
      "validateERC1155OrderProperties((uint8,address,address,uint256,uint256,address,uint256,(address,uint256,bytes)[],address,uint256,(address,bytes)[],uint128),uint256)": {
        "details": "If the given order is buying an ERC1155 asset, checks      whether or not the given token ID satisfies the required      properties specified in the order. If the order does not      specify any properties, this function instead checks      whether the given token ID matches the ID in the order.      Reverts if any checks fail, or if the order is selling      an ERC1155 asset.",
        "params": {
          "erc1155TokenId": "The ID of the ERC1155 asset.",
          "order": "The ERC1155 order."
        }
      },
      "validateERC1155OrderSignature((uint8,address,address,uint256,uint256,address,uint256,(address,uint256,bytes)[],address,uint256,(address,bytes)[],uint128),(uint8,uint8,bytes32,bytes32))": {
        "details": "Checks whether the given signature is valid for the      the given ERC1155 order. Reverts if not.",
        "params": {
          "order": "The ERC1155 order.",
          "signature": "The signature to validate."
        }
      }
    },
    "stateVariables": {
      "ERC1155_RECEIVED_MAGIC_BYTES": {
        "details": "The magic return value indicating the success of a `onERC1155Received`."
      },
      "FEATURE_NAME": {
        "details": "Name of this feature."
      },
      "FEATURE_VERSION": {
        "details": "Version of this feature."
      }
    },
    "version": 1
  },
  "userdoc": {
    "kind": "user",
    "methods": {},
    "version": 1
  },
  "storageLayout": {
    "storage": [],
    "types": null
  }
}