{
  "address": "0x7AE76139C07099FD77F5100af73871ec367Ca808",
  "abi": [
    {
      "inputs": [
        {
          "internalType": "address",
          "name": "zeroExAddress",
          "type": "address"
        },
        {
          "internalType": "contract IEtherTokenV06",
          "name": "weth",
          "type": "address"
        }
      ],
      "stateMutability": "nonpayable",
      "type": "constructor"
    },
    {
      "anonymous": false,
      "inputs": [
        {
          "indexed": false,
          "internalType": "address",
          "name": "maker",
          "type": "address"
        },
        {
          "indexed": false,
          "internalType": "uint256",
          "name": "nonce",
          "type": "uint256"
        }
      ],
      "name": "ERC721OrderCancelled",
      "type": "event"
    },
    {
      "anonymous": false,
      "inputs": [
        {
          "indexed": false,
          "internalType": "enum LibNFTOrder.TradeDirection",
          "name": "direction",
          "type": "uint8"
        },
        {
          "indexed": false,
          "internalType": "address",
          "name": "maker",
          "type": "address"
        },
        {
          "indexed": false,
          "internalType": "address",
          "name": "taker",
          "type": "address"
        },
        {
          "indexed": false,
          "internalType": "uint256",
          "name": "nonce",
          "type": "uint256"
        },
        {
          "indexed": false,
          "internalType": "contract IERC20TokenV06",
          "name": "erc20Token",
          "type": "address"
        },
        {
          "indexed": false,
          "internalType": "uint256",
          "name": "erc20TokenAmount",
          "type": "uint256"
        },
        {
          "indexed": false,
          "internalType": "contract IERC721Token",
          "name": "erc721Token",
          "type": "address"
        },
        {
          "indexed": false,
          "internalType": "uint256",
          "name": "erc721TokenId",
          "type": "uint256"
        },
        {
          "indexed": false,
          "internalType": "address",
          "name": "matcher",
          "type": "address"
        }
      ],
      "name": "ERC721OrderFilled",
      "type": "event"
    },
    {
      "anonymous": false,
      "inputs": [
        {
          "indexed": false,
          "internalType": "enum LibNFTOrder.TradeDirection",
          "name": "direction",
          "type": "uint8"
        },
        {
          "indexed": false,
          "internalType": "address",
          "name": "maker",
          "type": "address"
        },
        {
          "indexed": false,
          "internalType": "address",
          "name": "taker",
          "type": "address"
        },
        {
          "indexed": false,
          "internalType": "uint256",
          "name": "expiry",
          "type": "uint256"
        },
        {
          "indexed": false,
          "internalType": "uint256",
          "name": "nonce",
          "type": "uint256"
        },
        {
          "indexed": false,
          "internalType": "contract IERC20TokenV06",
          "name": "erc20Token",
          "type": "address"
        },
        {
          "indexed": false,
          "internalType": "uint256",
          "name": "erc20TokenAmount",
          "type": "uint256"
        },
        {
          "components": [
            {
              "internalType": "address",
              "name": "recipient",
              "type": "address"
            },
            {
              "internalType": "uint256",
              "name": "amount",
              "type": "uint256"
            },
            {
              "internalType": "bytes",
              "name": "feeData",
              "type": "bytes"
            }
          ],
          "indexed": false,
          "internalType": "struct LibNFTOrder.Fee[]",
          "name": "fees",
          "type": "tuple[]"
        },
        {
          "indexed": false,
          "internalType": "contract IERC721Token",
          "name": "erc721Token",
          "type": "address"
        },
        {
          "indexed": false,
          "internalType": "uint256",
          "name": "erc721TokenId",
          "type": "uint256"
        },
        {
          "components": [
            {
              "internalType": "contract IPropertyValidator",
              "name": "propertyValidator",
              "type": "address"
            },
            {
              "internalType": "bytes",
              "name": "propertyData",
              "type": "bytes"
            }
          ],
          "indexed": false,
          "internalType": "struct LibNFTOrder.Property[]",
          "name": "erc721TokenProperties",
          "type": "tuple[]"
        }
      ],
      "name": "ERC721OrderPreSigned",
      "type": "event"
    },
    {
      "inputs": [],
      "name": "EIP712_DOMAIN_SEPARATOR",
      "outputs": [
        {
          "internalType": "bytes32",
          "name": "",
          "type": "bytes32"
        }
      ],
      "stateMutability": "view",
      "type": "function"
    },
    {
      "inputs": [],
      "name": "FEATURE_NAME",
      "outputs": [
        {
          "internalType": "string",
          "name": "",
          "type": "string"
        }
      ],
      "stateMutability": "view",
      "type": "function"
    },
    {
      "inputs": [],
      "name": "FEATURE_VERSION",
      "outputs": [
        {
          "internalType": "uint256",
          "name": "",
          "type": "uint256"
        }
      ],
      "stateMutability": "view",
      "type": "function"
    },
    {
      "inputs": [
        {
          "components": [
            {
              "internalType": "enum LibNFTOrder.TradeDirection",
              "name": "direction",
              "type": "uint8"
            },
            {
              "internalType": "address",
              "name": "maker",
              "type": "address"
            },
            {
              "internalType": "address",
              "name": "taker",
              "type": "address"
            },
            {
              "internalType": "uint256",
              "name": "expiry",
              "type": "uint256"
            },
            {
              "internalType": "uint256",
              "name": "nonce",
              "type": "uint256"
            },
            {
              "internalType": "contract IERC20TokenV06",
              "name": "erc20Token",
              "type": "address"
            },
            {
              "internalType": "uint256",
              "name": "erc20TokenAmount",
              "type": "uint256"
            },
            {
              "components": [
                {
                  "internalType": "address",
                  "name": "recipient",
                  "type": "address"
                },
                {
                  "internalType": "uint256",
                  "name": "amount",
                  "type": "uint256"
                },
                {
                  "internalType": "bytes",
                  "name": "feeData",
                  "type": "bytes"
                }
              ],
              "internalType": "struct LibNFTOrder.Fee[]",
              "name": "fees",
              "type": "tuple[]"
            },
            {
              "internalType": "contract IERC721Token",
              "name": "erc721Token",
              "type": "address"
            },
            {
              "internalType": "uint256",
              "name": "erc721TokenId",
              "type": "uint256"
            },
            {
              "components": [
                {
                  "internalType": "contract IPropertyValidator",
                  "name": "propertyValidator",
                  "type": "address"
                },
                {
                  "internalType": "bytes",
                  "name": "propertyData",
                  "type": "bytes"
                }
              ],
              "internalType": "struct LibNFTOrder.Property[]",
              "name": "erc721TokenProperties",
              "type": "tuple[]"
            }
          ],
          "internalType": "struct LibNFTOrder.ERC721Order",
          "name": "sellOrder",
          "type": "tuple"
        },
        {
          "components": [
            {
              "internalType": "enum LibSignature.SignatureType",
              "name": "signatureType",
              "type": "uint8"
            },
            {
              "internalType": "uint8",
              "name": "v",
              "type": "uint8"
            },
            {
              "internalType": "bytes32",
              "name": "r",
              "type": "bytes32"
            },
            {
              "internalType": "bytes32",
              "name": "s",
              "type": "bytes32"
            }
          ],
          "internalType": "struct LibSignature.Signature",
          "name": "signature",
          "type": "tuple"
        },
        {
          "internalType": "uint256",
          "name": "ethAvailable",
          "type": "uint256"
        },
        {
          "internalType": "bytes",
          "name": "takerCallbackData",
          "type": "bytes"
        }
      ],
      "name": "_buyERC721",
      "outputs": [],
      "stateMutability": "payable",
      "type": "function"
    },
    {
      "inputs": [
        {
          "components": [
            {
              "internalType": "enum LibNFTOrder.TradeDirection",
              "name": "direction",
              "type": "uint8"
            },
            {
              "internalType": "address",
              "name": "maker",
              "type": "address"
            },
            {
              "internalType": "address",
              "name": "taker",
              "type": "address"
            },
            {
              "internalType": "uint256",
              "name": "expiry",
              "type": "uint256"
            },
            {
              "internalType": "uint256",
              "name": "nonce",
              "type": "uint256"
            },
            {
              "internalType": "contract IERC20TokenV06",
              "name": "erc20Token",
              "type": "address"
            },
            {
              "internalType": "uint256",
              "name": "erc20TokenAmount",
              "type": "uint256"
            },
            {
              "components": [
                {
                  "internalType": "address",
                  "name": "recipient",
                  "type": "address"
                },
                {
                  "internalType": "uint256",
                  "name": "amount",
                  "type": "uint256"
                },
                {
                  "internalType": "bytes",
                  "name": "feeData",
                  "type": "bytes"
                }
              ],
              "internalType": "struct LibNFTOrder.Fee[]",
              "name": "fees",
              "type": "tuple[]"
            },
            {
              "internalType": "contract IERC721Token",
              "name": "erc721Token",
              "type": "address"
            },
            {
              "internalType": "uint256",
              "name": "erc721TokenId",
              "type": "uint256"
            },
            {
              "components": [
                {
                  "internalType": "contract IPropertyValidator",
                  "name": "propertyValidator",
                  "type": "address"
                },
                {
                  "internalType": "bytes",
                  "name": "propertyData",
                  "type": "bytes"
                }
              ],
              "internalType": "struct LibNFTOrder.Property[]",
              "name": "erc721TokenProperties",
              "type": "tuple[]"
            }
          ],
          "internalType": "struct LibNFTOrder.ERC721Order[]",
          "name": "sellOrders",
          "type": "tuple[]"
        },
        {
          "components": [
            {
              "internalType": "enum LibSignature.SignatureType",
              "name": "signatureType",
              "type": "uint8"
            },
            {
              "internalType": "uint8",
              "name": "v",
              "type": "uint8"
            },
            {
              "internalType": "bytes32",
              "name": "r",
              "type": "bytes32"
            },
            {
              "internalType": "bytes32",
              "name": "s",
              "type": "bytes32"
            }
          ],
          "internalType": "struct LibSignature.Signature[]",
          "name": "signatures",
          "type": "tuple[]"
        },
        {
          "internalType": "bytes[]",
          "name": "callbackData",
          "type": "bytes[]"
        },
        {
          "internalType": "bool",
          "name": "revertIfIncomplete",
          "type": "bool"
        }
      ],
      "name": "batchBuyERC721s",
      "outputs": [
        {
          "internalType": "bool[]",
          "name": "successes",
          "type": "bool[]"
        }
      ],
      "stateMutability": "payable",
      "type": "function"
    },
    {
      "inputs": [
        {
          "internalType": "uint256[]",
          "name": "orderNonces",
          "type": "uint256[]"
        }
      ],
      "name": "batchCancelERC721Orders",
      "outputs": [],
      "stateMutability": "nonpayable",
      "type": "function"
    },
    {
      "inputs": [
        {
          "components": [
            {
              "internalType": "enum LibNFTOrder.TradeDirection",
              "name": "direction",
              "type": "uint8"
            },
            {
              "internalType": "address",
              "name": "maker",
              "type": "address"
            },
            {
              "internalType": "address",
              "name": "taker",
              "type": "address"
            },
            {
              "internalType": "uint256",
              "name": "expiry",
              "type": "uint256"
            },
            {
              "internalType": "uint256",
              "name": "nonce",
              "type": "uint256"
            },
            {
              "internalType": "contract IERC20TokenV06",
              "name": "erc20Token",
              "type": "address"
            },
            {
              "internalType": "uint256",
              "name": "erc20TokenAmount",
              "type": "uint256"
            },
            {
              "components": [
                {
                  "internalType": "address",
                  "name": "recipient",
                  "type": "address"
                },
                {
                  "internalType": "uint256",
                  "name": "amount",
                  "type": "uint256"
                },
                {
                  "internalType": "bytes",
                  "name": "feeData",
                  "type": "bytes"
                }
              ],
              "internalType": "struct LibNFTOrder.Fee[]",
              "name": "fees",
              "type": "tuple[]"
            },
            {
              "internalType": "contract IERC721Token",
              "name": "erc721Token",
              "type": "address"
            },
            {
              "internalType": "uint256",
              "name": "erc721TokenId",
              "type": "uint256"
            },
            {
              "components": [
                {
                  "internalType": "contract IPropertyValidator",
                  "name": "propertyValidator",
                  "type": "address"
                },
                {
                  "internalType": "bytes",
                  "name": "propertyData",
                  "type": "bytes"
                }
              ],
              "internalType": "struct LibNFTOrder.Property[]",
              "name": "erc721TokenProperties",
              "type": "tuple[]"
            }
          ],
          "internalType": "struct LibNFTOrder.ERC721Order[]",
          "name": "sellOrders",
          "type": "tuple[]"
        },
        {
          "components": [
            {
              "internalType": "enum LibNFTOrder.TradeDirection",
              "name": "direction",
              "type": "uint8"
            },
            {
              "internalType": "address",
              "name": "maker",
              "type": "address"
            },
            {
              "internalType": "address",
              "name": "taker",
              "type": "address"
            },
            {
              "internalType": "uint256",
              "name": "expiry",
              "type": "uint256"
            },
            {
              "internalType": "uint256",
              "name": "nonce",
              "type": "uint256"
            },
            {
              "internalType": "contract IERC20TokenV06",
              "name": "erc20Token",
              "type": "address"
            },
            {
              "internalType": "uint256",
              "name": "erc20TokenAmount",
              "type": "uint256"
            },
            {
              "components": [
                {
                  "internalType": "address",
                  "name": "recipient",
                  "type": "address"
                },
                {
                  "internalType": "uint256",
                  "name": "amount",
                  "type": "uint256"
                },
                {
                  "internalType": "bytes",
                  "name": "feeData",
                  "type": "bytes"
                }
              ],
              "internalType": "struct LibNFTOrder.Fee[]",
              "name": "fees",
              "type": "tuple[]"
            },
            {
              "internalType": "contract IERC721Token",
              "name": "erc721Token",
              "type": "address"
            },
            {
              "internalType": "uint256",
              "name": "erc721TokenId",
              "type": "uint256"
            },
            {
              "components": [
                {
                  "internalType": "contract IPropertyValidator",
                  "name": "propertyValidator",
                  "type": "address"
                },
                {
                  "internalType": "bytes",
                  "name": "propertyData",
                  "type": "bytes"
                }
              ],
              "internalType": "struct LibNFTOrder.Property[]",
              "name": "erc721TokenProperties",
              "type": "tuple[]"
            }
          ],
          "internalType": "struct LibNFTOrder.ERC721Order[]",
          "name": "buyOrders",
          "type": "tuple[]"
        },
        {
          "components": [
            {
              "internalType": "enum LibSignature.SignatureType",
              "name": "signatureType",
              "type": "uint8"
            },
            {
              "internalType": "uint8",
              "name": "v",
              "type": "uint8"
            },
            {
              "internalType": "bytes32",
              "name": "r",
              "type": "bytes32"
            },
            {
              "internalType": "bytes32",
              "name": "s",
              "type": "bytes32"
            }
          ],
          "internalType": "struct LibSignature.Signature[]",
          "name": "sellOrderSignatures",
          "type": "tuple[]"
        },
        {
          "components": [
            {
              "internalType": "enum LibSignature.SignatureType",
              "name": "signatureType",
              "type": "uint8"
            },
            {
              "internalType": "uint8",
              "name": "v",
              "type": "uint8"
            },
            {
              "internalType": "bytes32",
              "name": "r",
              "type": "bytes32"
            },
            {
              "internalType": "bytes32",
              "name": "s",
              "type": "bytes32"
            }
          ],
          "internalType": "struct LibSignature.Signature[]",
          "name": "buyOrderSignatures",
          "type": "tuple[]"
        }
      ],
      "name": "batchMatchERC721Orders",
      "outputs": [
        {
          "internalType": "uint256[]",
          "name": "profits",
          "type": "uint256[]"
        },
        {
          "internalType": "bool[]",
          "name": "successes",
          "type": "bool[]"
        }
      ],
      "stateMutability": "nonpayable",
      "type": "function"
    },
    {
      "inputs": [
        {
          "components": [
            {
              "internalType": "enum LibNFTOrder.TradeDirection",
              "name": "direction",
              "type": "uint8"
            },
            {
              "internalType": "address",
              "name": "maker",
              "type": "address"
            },
            {
              "internalType": "address",
              "name": "taker",
              "type": "address"
            },
            {
              "internalType": "uint256",
              "name": "expiry",
              "type": "uint256"
            },
            {
              "internalType": "uint256",
              "name": "nonce",
              "type": "uint256"
            },
            {
              "internalType": "contract IERC20TokenV06",
              "name": "erc20Token",
              "type": "address"
            },
            {
              "internalType": "uint256",
              "name": "erc20TokenAmount",
              "type": "uint256"
            },
            {
              "components": [
                {
                  "internalType": "address",
                  "name": "recipient",
                  "type": "address"
                },
                {
                  "internalType": "uint256",
                  "name": "amount",
                  "type": "uint256"
                },
                {
                  "internalType": "bytes",
                  "name": "feeData",
                  "type": "bytes"
                }
              ],
              "internalType": "struct LibNFTOrder.Fee[]",
              "name": "fees",
              "type": "tuple[]"
            },
            {
              "internalType": "contract IERC721Token",
              "name": "erc721Token",
              "type": "address"
            },
            {
              "internalType": "uint256",
              "name": "erc721TokenId",
              "type": "uint256"
            },
            {
              "components": [
                {
                  "internalType": "contract IPropertyValidator",
                  "name": "propertyValidator",
                  "type": "address"
                },
                {
                  "internalType": "bytes",
                  "name": "propertyData",
                  "type": "bytes"
                }
              ],
              "internalType": "struct LibNFTOrder.Property[]",
              "name": "erc721TokenProperties",
              "type": "tuple[]"
            }
          ],
          "internalType": "struct LibNFTOrder.ERC721Order",
          "name": "sellOrder",
          "type": "tuple"
        },
        {
          "components": [
            {
              "internalType": "enum LibSignature.SignatureType",
              "name": "signatureType",
              "type": "uint8"
            },
            {
              "internalType": "uint8",
              "name": "v",
              "type": "uint8"
            },
            {
              "internalType": "bytes32",
              "name": "r",
              "type": "bytes32"
            },
            {
              "internalType": "bytes32",
              "name": "s",
              "type": "bytes32"
            }
          ],
          "internalType": "struct LibSignature.Signature",
          "name": "signature",
          "type": "tuple"
        },
        {
          "internalType": "bytes",
          "name": "callbackData",
          "type": "bytes"
        }
      ],
      "name": "buyERC721",
      "outputs": [],
      "stateMutability": "payable",
      "type": "function"
    },
    {
      "inputs": [
        {
          "internalType": "uint256",
          "name": "orderNonce",
          "type": "uint256"
        }
      ],
      "name": "cancelERC721Order",
      "outputs": [],
      "stateMutability": "nonpayable",
      "type": "function"
    },
    {
      "inputs": [
        {
          "components": [
            {
              "internalType": "enum LibNFTOrder.TradeDirection",
              "name": "direction",
              "type": "uint8"
            },
            {
              "internalType": "address",
              "name": "maker",
              "type": "address"
            },
            {
              "internalType": "address",
              "name": "taker",
              "type": "address"
            },
            {
              "internalType": "uint256",
              "name": "expiry",
              "type": "uint256"
            },
            {
              "internalType": "uint256",
              "name": "nonce",
              "type": "uint256"
            },
            {
              "internalType": "contract IERC20TokenV06",
              "name": "erc20Token",
              "type": "address"
            },
            {
              "internalType": "uint256",
              "name": "erc20TokenAmount",
              "type": "uint256"
            },
            {
              "components": [
                {
                  "internalType": "address",
                  "name": "recipient",
                  "type": "address"
                },
                {
                  "internalType": "uint256",
                  "name": "amount",
                  "type": "uint256"
                },
                {
                  "internalType": "bytes",
                  "name": "feeData",
                  "type": "bytes"
                }
              ],
              "internalType": "struct LibNFTOrder.Fee[]",
              "name": "fees",
              "type": "tuple[]"
            },
            {
              "internalType": "contract IERC721Token",
              "name": "erc721Token",
              "type": "address"
            },
            {
              "internalType": "uint256",
              "name": "erc721TokenId",
              "type": "uint256"
            },
            {
              "components": [
                {
                  "internalType": "contract IPropertyValidator",
                  "name": "propertyValidator",
                  "type": "address"
                },
                {
                  "internalType": "bytes",
                  "name": "propertyData",
                  "type": "bytes"
                }
              ],
              "internalType": "struct LibNFTOrder.Property[]",
              "name": "erc721TokenProperties",
              "type": "tuple[]"
            }
          ],
          "internalType": "struct LibNFTOrder.ERC721Order",
          "name": "order",
          "type": "tuple"
        }
      ],
      "name": "getERC721OrderHash",
      "outputs": [
        {
          "internalType": "bytes32",
          "name": "orderHash",
          "type": "bytes32"
        }
      ],
      "stateMutability": "view",
      "type": "function"
    },
    {
      "inputs": [
        {
          "components": [
            {
              "internalType": "enum LibNFTOrder.TradeDirection",
              "name": "direction",
              "type": "uint8"
            },
            {
              "internalType": "address",
              "name": "maker",
              "type": "address"
            },
            {
              "internalType": "address",
              "name": "taker",
              "type": "address"
            },
            {
              "internalType": "uint256",
              "name": "expiry",
              "type": "uint256"
            },
            {
              "internalType": "uint256",
              "name": "nonce",
              "type": "uint256"
            },
            {
              "internalType": "contract IERC20TokenV06",
              "name": "erc20Token",
              "type": "address"
            },
            {
              "internalType": "uint256",
              "name": "erc20TokenAmount",
              "type": "uint256"
            },
            {
              "components": [
                {
                  "internalType": "address",
                  "name": "recipient",
                  "type": "address"
                },
                {
                  "internalType": "uint256",
                  "name": "amount",
                  "type": "uint256"
                },
                {
                  "internalType": "bytes",
                  "name": "feeData",
                  "type": "bytes"
                }
              ],
              "internalType": "struct LibNFTOrder.Fee[]",
              "name": "fees",
              "type": "tuple[]"
            },
            {
              "internalType": "contract IERC721Token",
              "name": "erc721Token",
              "type": "address"
            },
            {
              "internalType": "uint256",
              "name": "erc721TokenId",
              "type": "uint256"
            },
            {
              "components": [
                {
                  "internalType": "contract IPropertyValidator",
                  "name": "propertyValidator",
                  "type": "address"
                },
                {
                  "internalType": "bytes",
                  "name": "propertyData",
                  "type": "bytes"
                }
              ],
              "internalType": "struct LibNFTOrder.Property[]",
              "name": "erc721TokenProperties",
              "type": "tuple[]"
            }
          ],
          "internalType": "struct LibNFTOrder.ERC721Order",
          "name": "order",
          "type": "tuple"
        }
      ],
      "name": "getERC721OrderStatus",
      "outputs": [
        {
          "internalType": "enum LibNFTOrder.OrderStatus",
          "name": "status",
          "type": "uint8"
        }
      ],
      "stateMutability": "view",
      "type": "function"
    },
    {
      "inputs": [
        {
          "internalType": "address",
          "name": "maker",
          "type": "address"
        },
        {
          "internalType": "uint248",
          "name": "nonceRange",
          "type": "uint248"
        }
      ],
      "name": "getERC721OrderStatusBitVector",
      "outputs": [
        {
          "internalType": "uint256",
          "name": "bitVector",
          "type": "uint256"
        }
      ],
      "stateMutability": "view",
      "type": "function"
    },
    {
      "inputs": [
        {
          "components": [
            {
              "internalType": "enum LibNFTOrder.TradeDirection",
              "name": "direction",
              "type": "uint8"
            },
            {
              "internalType": "address",
              "name": "maker",
              "type": "address"
            },
            {
              "internalType": "address",
              "name": "taker",
              "type": "address"
            },
            {
              "internalType": "uint256",
              "name": "expiry",
              "type": "uint256"
            },
            {
              "internalType": "uint256",
              "name": "nonce",
              "type": "uint256"
            },
            {
              "internalType": "contract IERC20TokenV06",
              "name": "erc20Token",
              "type": "address"
            },
            {
              "internalType": "uint256",
              "name": "erc20TokenAmount",
              "type": "uint256"
            },
            {
              "components": [
                {
                  "internalType": "address",
                  "name": "recipient",
                  "type": "address"
                },
                {
                  "internalType": "uint256",
                  "name": "amount",
                  "type": "uint256"
                },
                {
                  "internalType": "bytes",
                  "name": "feeData",
                  "type": "bytes"
                }
              ],
              "internalType": "struct LibNFTOrder.Fee[]",
              "name": "fees",
              "type": "tuple[]"
            },
            {
              "internalType": "contract IERC721Token",
              "name": "erc721Token",
              "type": "address"
            },
            {
              "internalType": "uint256",
              "name": "erc721TokenId",
              "type": "uint256"
            },
            {
              "components": [
                {
                  "internalType": "contract IPropertyValidator",
                  "name": "propertyValidator",
                  "type": "address"
                },
                {
                  "internalType": "bytes",
                  "name": "propertyData",
                  "type": "bytes"
                }
              ],
              "internalType": "struct LibNFTOrder.Property[]",
              "name": "erc721TokenProperties",
              "type": "tuple[]"
            }
          ],
          "internalType": "struct LibNFTOrder.ERC721Order",
          "name": "sellOrder",
          "type": "tuple"
        },
        {
          "components": [
            {
              "internalType": "enum LibNFTOrder.TradeDirection",
              "name": "direction",
              "type": "uint8"
            },
            {
              "internalType": "address",
              "name": "maker",
              "type": "address"
            },
            {
              "internalType": "address",
              "name": "taker",
              "type": "address"
            },
            {
              "internalType": "uint256",
              "name": "expiry",
              "type": "uint256"
            },
            {
              "internalType": "uint256",
              "name": "nonce",
              "type": "uint256"
            },
            {
              "internalType": "contract IERC20TokenV06",
              "name": "erc20Token",
              "type": "address"
            },
            {
              "internalType": "uint256",
              "name": "erc20TokenAmount",
              "type": "uint256"
            },
            {
              "components": [
                {
                  "internalType": "address",
                  "name": "recipient",
                  "type": "address"
                },
                {
                  "internalType": "uint256",
                  "name": "amount",
                  "type": "uint256"
                },
                {
                  "internalType": "bytes",
                  "name": "feeData",
                  "type": "bytes"
                }
              ],
              "internalType": "struct LibNFTOrder.Fee[]",
              "name": "fees",
              "type": "tuple[]"
            },
            {
              "internalType": "contract IERC721Token",
              "name": "erc721Token",
              "type": "address"
            },
            {
              "internalType": "uint256",
              "name": "erc721TokenId",
              "type": "uint256"
            },
            {
              "components": [
                {
                  "internalType": "contract IPropertyValidator",
                  "name": "propertyValidator",
                  "type": "address"
                },
                {
                  "internalType": "bytes",
                  "name": "propertyData",
                  "type": "bytes"
                }
              ],
              "internalType": "struct LibNFTOrder.Property[]",
              "name": "erc721TokenProperties",
              "type": "tuple[]"
            }
          ],
          "internalType": "struct LibNFTOrder.ERC721Order",
          "name": "buyOrder",
          "type": "tuple"
        },
        {
          "components": [
            {
              "internalType": "enum LibSignature.SignatureType",
              "name": "signatureType",
              "type": "uint8"
            },
            {
              "internalType": "uint8",
              "name": "v",
              "type": "uint8"
            },
            {
              "internalType": "bytes32",
              "name": "r",
              "type": "bytes32"
            },
            {
              "internalType": "bytes32",
              "name": "s",
              "type": "bytes32"
            }
          ],
          "internalType": "struct LibSignature.Signature",
          "name": "sellOrderSignature",
          "type": "tuple"
        },
        {
          "components": [
            {
              "internalType": "enum LibSignature.SignatureType",
              "name": "signatureType",
              "type": "uint8"
            },
            {
              "internalType": "uint8",
              "name": "v",
              "type": "uint8"
            },
            {
              "internalType": "bytes32",
              "name": "r",
              "type": "bytes32"
            },
            {
              "internalType": "bytes32",
              "name": "s",
              "type": "bytes32"
            }
          ],
          "internalType": "struct LibSignature.Signature",
          "name": "buyOrderSignature",
          "type": "tuple"
        }
      ],
      "name": "matchERC721Orders",
      "outputs": [
        {
          "internalType": "uint256",
          "name": "profit",
          "type": "uint256"
        }
      ],
      "stateMutability": "nonpayable",
      "type": "function"
    },
    {
      "inputs": [],
      "name": "migrate",
      "outputs": [
        {
          "internalType": "bytes4",
          "name": "success",
          "type": "bytes4"
        }
      ],
      "stateMutability": "nonpayable",
      "type": "function"
    },
    {
      "inputs": [
        {
          "internalType": "address",
          "name": "operator",
          "type": "address"
        },
        {
          "internalType": "address",
          "name": "",
          "type": "address"
        },
        {
          "internalType": "uint256",
          "name": "tokenId",
          "type": "uint256"
        },
        {
          "internalType": "bytes",
          "name": "data",
          "type": "bytes"
        }
      ],
      "name": "onERC721Received",
      "outputs": [
        {
          "internalType": "bytes4",
          "name": "success",
          "type": "bytes4"
        }
      ],
      "stateMutability": "nonpayable",
      "type": "function"
    },
    {
      "inputs": [
        {
          "components": [
            {
              "internalType": "enum LibNFTOrder.TradeDirection",
              "name": "direction",
              "type": "uint8"
            },
            {
              "internalType": "address",
              "name": "maker",
              "type": "address"
            },
            {
              "internalType": "address",
              "name": "taker",
              "type": "address"
            },
            {
              "internalType": "uint256",
              "name": "expiry",
              "type": "uint256"
            },
            {
              "internalType": "uint256",
              "name": "nonce",
              "type": "uint256"
            },
            {
              "internalType": "contract IERC20TokenV06",
              "name": "erc20Token",
              "type": "address"
            },
            {
              "internalType": "uint256",
              "name": "erc20TokenAmount",
              "type": "uint256"
            },
            {
              "components": [
                {
                  "internalType": "address",
                  "name": "recipient",
                  "type": "address"
                },
                {
                  "internalType": "uint256",
                  "name": "amount",
                  "type": "uint256"
                },
                {
                  "internalType": "bytes",
                  "name": "feeData",
                  "type": "bytes"
                }
              ],
              "internalType": "struct LibNFTOrder.Fee[]",
              "name": "fees",
              "type": "tuple[]"
            },
            {
              "internalType": "contract IERC721Token",
              "name": "erc721Token",
              "type": "address"
            },
            {
              "internalType": "uint256",
              "name": "erc721TokenId",
              "type": "uint256"
            },
            {
              "components": [
                {
                  "internalType": "contract IPropertyValidator",
                  "name": "propertyValidator",
                  "type": "address"
                },
                {
                  "internalType": "bytes",
                  "name": "propertyData",
                  "type": "bytes"
                }
              ],
              "internalType": "struct LibNFTOrder.Property[]",
              "name": "erc721TokenProperties",
              "type": "tuple[]"
            }
          ],
          "internalType": "struct LibNFTOrder.ERC721Order",
          "name": "order",
          "type": "tuple"
        }
      ],
      "name": "preSignERC721Order",
      "outputs": [],
      "stateMutability": "nonpayable",
      "type": "function"
    },
    {
      "inputs": [
        {
          "components": [
            {
              "internalType": "enum LibNFTOrder.TradeDirection",
              "name": "direction",
              "type": "uint8"
            },
            {
              "internalType": "address",
              "name": "maker",
              "type": "address"
            },
            {
              "internalType": "address",
              "name": "taker",
              "type": "address"
            },
            {
              "internalType": "uint256",
              "name": "expiry",
              "type": "uint256"
            },
            {
              "internalType": "uint256",
              "name": "nonce",
              "type": "uint256"
            },
            {
              "internalType": "contract IERC20TokenV06",
              "name": "erc20Token",
              "type": "address"
            },
            {
              "internalType": "uint256",
              "name": "erc20TokenAmount",
              "type": "uint256"
            },
            {
              "components": [
                {
                  "internalType": "address",
                  "name": "recipient",
                  "type": "address"
                },
                {
                  "internalType": "uint256",
                  "name": "amount",
                  "type": "uint256"
                },
                {
                  "internalType": "bytes",
                  "name": "feeData",
                  "type": "bytes"
                }
              ],
              "internalType": "struct LibNFTOrder.Fee[]",
              "name": "fees",
              "type": "tuple[]"
            },
            {
              "internalType": "contract IERC721Token",
              "name": "erc721Token",
              "type": "address"
            },
            {
              "internalType": "uint256",
              "name": "erc721TokenId",
              "type": "uint256"
            },
            {
              "components": [
                {
                  "internalType": "contract IPropertyValidator",
                  "name": "propertyValidator",
                  "type": "address"
                },
                {
                  "internalType": "bytes",
                  "name": "propertyData",
                  "type": "bytes"
                }
              ],
              "internalType": "struct LibNFTOrder.Property[]",
              "name": "erc721TokenProperties",
              "type": "tuple[]"
            }
          ],
          "internalType": "struct LibNFTOrder.ERC721Order",
          "name": "buyOrder",
          "type": "tuple"
        },
        {
          "components": [
            {
              "internalType": "enum LibSignature.SignatureType",
              "name": "signatureType",
              "type": "uint8"
            },
            {
              "internalType": "uint8",
              "name": "v",
              "type": "uint8"
            },
            {
              "internalType": "bytes32",
              "name": "r",
              "type": "bytes32"
            },
            {
              "internalType": "bytes32",
              "name": "s",
              "type": "bytes32"
            }
          ],
          "internalType": "struct LibSignature.Signature",
          "name": "signature",
          "type": "tuple"
        },
        {
          "internalType": "uint256",
          "name": "erc721TokenId",
          "type": "uint256"
        },
        {
          "internalType": "bool",
          "name": "unwrapNativeToken",
          "type": "bool"
        },
        {
          "internalType": "bytes",
          "name": "callbackData",
          "type": "bytes"
        }
      ],
      "name": "sellERC721",
      "outputs": [],
      "stateMutability": "nonpayable",
      "type": "function"
    },
    {
      "inputs": [
        {
          "components": [
            {
              "internalType": "enum LibNFTOrder.TradeDirection",
              "name": "direction",
              "type": "uint8"
            },
            {
              "internalType": "address",
              "name": "maker",
              "type": "address"
            },
            {
              "internalType": "address",
              "name": "taker",
              "type": "address"
            },
            {
              "internalType": "uint256",
              "name": "expiry",
              "type": "uint256"
            },
            {
              "internalType": "uint256",
              "name": "nonce",
              "type": "uint256"
            },
            {
              "internalType": "contract IERC20TokenV06",
              "name": "erc20Token",
              "type": "address"
            },
            {
              "internalType": "uint256",
              "name": "erc20TokenAmount",
              "type": "uint256"
            },
            {
              "components": [
                {
                  "internalType": "address",
                  "name": "recipient",
                  "type": "address"
                },
                {
                  "internalType": "uint256",
                  "name": "amount",
                  "type": "uint256"
                },
                {
                  "internalType": "bytes",
                  "name": "feeData",
                  "type": "bytes"
                }
              ],
              "internalType": "struct LibNFTOrder.Fee[]",
              "name": "fees",
              "type": "tuple[]"
            },
            {
              "internalType": "contract IERC721Token",
              "name": "erc721Token",
              "type": "address"
            },
            {
              "internalType": "uint256",
              "name": "erc721TokenId",
              "type": "uint256"
            },
            {
              "components": [
                {
                  "internalType": "contract IPropertyValidator",
                  "name": "propertyValidator",
                  "type": "address"
                },
                {
                  "internalType": "bytes",
                  "name": "propertyData",
                  "type": "bytes"
                }
              ],
              "internalType": "struct LibNFTOrder.Property[]",
              "name": "erc721TokenProperties",
              "type": "tuple[]"
            }
          ],
          "internalType": "struct LibNFTOrder.ERC721Order",
          "name": "order",
          "type": "tuple"
        },
        {
          "internalType": "uint256",
          "name": "erc721TokenId",
          "type": "uint256"
        }
      ],
      "name": "validateERC721OrderProperties",
      "outputs": [],
      "stateMutability": "view",
      "type": "function"
    },
    {
      "inputs": [
        {
          "components": [
            {
              "internalType": "enum LibNFTOrder.TradeDirection",
              "name": "direction",
              "type": "uint8"
            },
            {
              "internalType": "address",
              "name": "maker",
              "type": "address"
            },
            {
              "internalType": "address",
              "name": "taker",
              "type": "address"
            },
            {
              "internalType": "uint256",
              "name": "expiry",
              "type": "uint256"
            },
            {
              "internalType": "uint256",
              "name": "nonce",
              "type": "uint256"
            },
            {
              "internalType": "contract IERC20TokenV06",
              "name": "erc20Token",
              "type": "address"
            },
            {
              "internalType": "uint256",
              "name": "erc20TokenAmount",
              "type": "uint256"
            },
            {
              "components": [
                {
                  "internalType": "address",
                  "name": "recipient",
                  "type": "address"
                },
                {
                  "internalType": "uint256",
                  "name": "amount",
                  "type": "uint256"
                },
                {
                  "internalType": "bytes",
                  "name": "feeData",
                  "type": "bytes"
                }
              ],
              "internalType": "struct LibNFTOrder.Fee[]",
              "name": "fees",
              "type": "tuple[]"
            },
            {
              "internalType": "contract IERC721Token",
              "name": "erc721Token",
              "type": "address"
            },
            {
              "internalType": "uint256",
              "name": "erc721TokenId",
              "type": "uint256"
            },
            {
              "components": [
                {
                  "internalType": "contract IPropertyValidator",
                  "name": "propertyValidator",
                  "type": "address"
                },
                {
                  "internalType": "bytes",
                  "name": "propertyData",
                  "type": "bytes"
                }
              ],
              "internalType": "struct LibNFTOrder.Property[]",
              "name": "erc721TokenProperties",
              "type": "tuple[]"
            }
          ],
          "internalType": "struct LibNFTOrder.ERC721Order",
          "name": "order",
          "type": "tuple"
        },
        {
          "components": [
            {
              "internalType": "enum LibSignature.SignatureType",
              "name": "signatureType",
              "type": "uint8"
            },
            {
              "internalType": "uint8",
              "name": "v",
              "type": "uint8"
            },
            {
              "internalType": "bytes32",
              "name": "r",
              "type": "bytes32"
            },
            {
              "internalType": "bytes32",
              "name": "s",
              "type": "bytes32"
            }
          ],
          "internalType": "struct LibSignature.Signature",
          "name": "signature",
          "type": "tuple"
        }
      ],
      "name": "validateERC721OrderSignature",
      "outputs": [],
      "stateMutability": "view",
      "type": "function"
    }
  ],
  "transactionHash": "0x7d66b56f180a5c664e027a8e623820463d568fdcaac6db3f2396b182989c9ddf",
  "args": [
    "0x19aaD856cE8c4C7e813233b21d56dA97796cC052",
    "0x1FA6A37c64804C0D797bA6bC1955E50068FbF362"
  ],
  "numDeployments": 1,
  "solcInputHash": "011237655157f4d2198ab80c9f4857a8",
  "bytecode": "0x61010060405262000014600160008062000108565b60e0523480156200002457600080fd5b50604051620057193803806200571983398101604081905262000047916200013a565b3060601b6080526040518290829082904690620000d1907f8b73c3c69bb8fe3d512ecc4cf759cc79239f7b179b0ffacaa9a75d522b39400f907f9e5dae0addaf20578aeb5d70341d092b53b4e14480ac5726438fd436df7ba427907f06c015bd22b4c69690933c1058878ebdfef31f9aaae40bbe86d8a09fe1b2972c908590879060200162000178565b60408051808303601f19018152919052805160209091012060a052505060601b6001600160601b03191660c05250620001bd915050565b6bffffffff0000000000000000604084901b1667ffffffff00000000602084901b161763ffffffff8216179392505050565b600080604083850312156200014d578182fd5b82516200015a81620001a4565b60208401519092506200016d81620001a4565b809150509250929050565b9485526020850193909352604084019190915260608301526001600160a01b0316608082015260a00190565b6001600160a01b0381168114620001ba57600080fd5b50565b60805160601c60a05160c05160601c60e0516154df6200023a600039806104165250806105b3528061060f52806106805280611d3f528061269f52806126fe52806127825280612d465280612da85280612dd15280612e395250806111c85280612958525080610cdb528061132a528061286152506154df6000f3fe6080604052600436106101445760003560e01c806386219940116100c0578063d1ca183b11610074578063eae93ee711610059578063eae93ee714610350578063fbc4a51814610370578063fbee349d1461039d57610144565b8063d1ca183b1461031b578063dab400f31461033b57610144565b8063afde1b3c116100a5578063afde1b3c146102bb578063b73a6027146102db578063be167b9d146102fb57610144565b806386219940146102865780638fd3ab80146102a657610144565b8063462103af1161011757806360018b41116100fc57806360018b41146102235780636ae4b4f7146102365780637da9e2cf1461025857610144565b8063462103af146101e15780634a13d7971461020357610144565b8063030b273014610149578063031b905c1461017f5780630d8261eb14610194578063150b7a02146101b4575b600080fd5b34801561015557600080fd5b5061016961016436600461409f565b6103b0565b6040516101769190614ad8565b60405180910390f35b34801561018b57600080fd5b50610169610414565b3480156101a057600080fd5b506101696101af366004614369565b610438565b3480156101c057600080fd5b506101d46101cf366004614005565b6108f9565b6040516101769190614b18565b3480156101ed57600080fd5b506102016101fc366004614336565b6109bd565b005b34801561020f57600080fd5b5061020161021e366004614606565b610aed565b610201610231366004614596565b610b03565b34801561024257600080fd5b5061024b610bb0565b6040516101769190614cdd565b34801561026457600080fd5b506102786102733660046140fa565b610be9565b604051610176929190614a8b565b34801561029257600080fd5b506102016102a1366004614287565b610ec4565b3480156102b257600080fd5b506101d4610ef7565b3480156102c757600080fd5b506102016102d6366004614507565b611133565b3480156102e757600080fd5b506101696102f6366004614336565b611149565b34801561030757600080fd5b50610201610316366004614649565b611164565b34801561032757600080fd5b506102016103363660046143e3565b6111aa565b34801561034757600080fd5b506101696111c6565b61036361035e3660046141a2565b6111ea565b6040516101769190614a78565b34801561037c57600080fd5b5061039061038b366004614336565b6114ea565b6040516101769190614bae565b6102016103ab366004614495565b611602565b6000806103bb611642565b73ffffffffffffffffffffffffffffffffffffffff85166000908152602091825260408082207effffffffffffffffffffffffffffffffffffffffffffffffffffffffffffff8716835290925220549150505b92915050565b7f000000000000000000000000000000000000000000000000000000000000000081565b600083610100015173ffffffffffffffffffffffffffffffffffffffff1685610100015173ffffffffffffffffffffffffffffffffffffffff16146104935761049361048e86610100015186610100015161164f565b61170a565b61049b613a30565b6104a486611712565b90506104ae613a30565b6104b786611712565b90506104c1613ae3565b6104ca8361171e565b90506104d4613ae3565b6104dd8361171e565b90506104ef8488848b602001516117a3565b6105058387838c602001518d61012001516118ad565b6105158483600001516001611a1e565b6105258382600001516001611a1e565b50508660c001518660c00151101561054c5761054c61048e8860c001518860c00151611a4c565b60008760c001518760c00151039050610579886101000151896020015189602001518b6101200151611a82565b60a088015173ffffffffffffffffffffffffffffffffffffffff1673eeeeeeeeeeeeeeeeeeeeeeeeeeeeeeeeeeeeeeee14801561060557507f000000000000000000000000000000000000000000000000000000000000000073ffffffffffffffffffffffffffffffffffffffff168760a0015173ffffffffffffffffffffffffffffffffffffffff16145b1561074f5761063e7f00000000000000000000000000000000000000000000000000000000000000008860200151308a60c00151611b6e565b60c08701516040517f2e1a7d4d00000000000000000000000000000000000000000000000000000000815273ffffffffffffffffffffffffffffffffffffffff7f00000000000000000000000000000000000000000000000000000000000000001691632e1a7d4d916106b49190600401614ad8565b600060405180830381600087803b1580156106ce57600080fd5b505af11580156106e2573d6000803e3d6000fd5b505050506106f888602001518960c00151611c6d565b61070b8288602001516001806000611d16565b50600061071d84306001806001611d16565b9050808210156107345761073461048e8284612076565b80820394508415610749576107493386611c6d565b5061081c565b8660a0015173ffffffffffffffffffffffffffffffffffffffff168860a0015173ffffffffffffffffffffffffffffffffffffffff161461079f5761079f61048e8960a001518960a001516120ac565b6107bb8760a0015188602001518a602001518b60c00151611b6e565b6107ce8288602001516001806000611d16565b5060006107e48489602001516001806000611d16565b9050808210156107fb576107fb61048e8284612076565b8082039450841561081a5761081a8860a0015189602001513388611b6e565b505b7f50273fa02273cceea9cf085b42de5c8af60624140168bd71357db833535877af8860000151896020015189602001518b608001518c60a001518d60c001518e61010001518f61012001513360405161087d99989796959493929190614bd9565b60405180910390a17f50273fa02273cceea9cf085b42de5c8af60624140168bd71357db833535877af876000015188602001518a602001518a608001518b60a001518c60c001518d61010001518f6101200151336040516108e699989796959493929190614bd9565b60405180910390a1505050949350505050565b6000610903613a30565b61090b613b0c565b600061091985870187614430565b92509250925082610100015173ffffffffffffffffffffffffffffffffffffffff163373ffffffffffffffffffffffffffffffffffffffff16146109695761096961048e3385610100015161164f565b60408051600081526020810190915261098d90849084908a9085908e9030906120e2565b507f150b7a0200000000000000000000000000000000000000000000000000000000925050505b95945050505050565b602081015173ffffffffffffffffffffffffffffffffffffffff163314610a19576040517f08c379a0000000000000000000000000000000000000000000000000000000008152600401610a1090614e8a565b60405180910390fd5b6000610a2482611149565b90506001610a30611642565b6000838152600191909101602090815260409182902080547fffffffffffffffffffffffffffffffffffffffffffffffffffffffffffffff001693151593909317909255835191840151848201516060860151608087015160a088015160c089015160e08a01516101008b01516101208c01516101408d015199517f8c5d0c41fb16a7317a6c55ff7ba93d9d74f79e434fefa694e50d6028afbfa3f09b610ae19b909a999897969594939291614c44565b60405180910390a15050565b610aff610af983611712565b826121cd565b5050565b610b43610b0f85611712565b84604051806060016040528060016fffffffffffffffffffffffffffffffff1681526020018681526020018581525061239d565b507f50273fa02273cceea9cf085b42de5c8af60624140168bd71357db833535877af846000015185602001513387608001518860a001518960c001518a61010001518b61012001516000604051610ba299989796959493929190614bd9565b60405180910390a150505050565b6040518060400160405280600c81526020017f4552433732314f7264657273000000000000000000000000000000000000000081525081565b60608084518651148015610bfe575082518451145b8015610c0b575083518651145b610c41576040517f08c379a0000000000000000000000000000000000000000000000000000000008152600401610a1090614daa565b855167ffffffffffffffff81118015610c5957600080fd5b50604051908082528060200260200182016040528015610c83578160200160208202803683370190505b509150855167ffffffffffffffff81118015610c9e57600080fd5b50604051908082528060200260200182016040528015610cc8578160200160208202803683370190505b50905060005b8651811015610eba5760607f000000000000000000000000000000000000000000000000000000000000000073ffffffffffffffffffffffffffffffffffffffff16630d8261eb60e01b898481518110610d2457fe5b6020026020010151898581518110610d3857fe5b6020026020010151898681518110610d4c57fe5b6020026020010151898781518110610d6057fe5b6020026020010151604051602401610d7b94939291906152e6565b604080517fffffffffffffffffffffffffffffffffffffffffffffffffffffffffffffffe08184030181529181526020820180517bffffffffffffffffffffffffffffffffffffffffffffffffffffffff167fffffffff00000000000000000000000000000000000000000000000000000000909416939093179092529051610e049190614913565b600060405180830381855af49150503d8060008114610e3f576040519150601f19603f3d011682016040523d82523d6000602084013e610e44565b606091505b50848481518110610e5157fe5b6020026020010181935082151515158152505050828281518110610e7157fe5b602002602001015115610eb157600081806020019051810190610e949190614661565b905080858481518110610ea357fe5b602002602001018181525050505b50600101610cce565b5094509492505050565b60005b81811015610ef257610eea838383818110610ede57fe5b90506020020135611164565b600101610ec7565b505050565b6000610f227fafde1b3c0000000000000000000000000000000000000000000000000000000061282b565b610f4b7ffbee349d0000000000000000000000000000000000000000000000000000000061282b565b610f747fbe167b9d0000000000000000000000000000000000000000000000000000000061282b565b610f9d7feae93ee70000000000000000000000000000000000000000000000000000000061282b565b610fc67f0d8261eb0000000000000000000000000000000000000000000000000000000061282b565b610fef7f7da9e2cf0000000000000000000000000000000000000000000000000000000061282b565b6110187f150b7a020000000000000000000000000000000000000000000000000000000061282b565b6110417f462103af0000000000000000000000000000000000000000000000000000000061282b565b61106a7fd1ca183b0000000000000000000000000000000000000000000000000000000061282b565b6110937f4a13d7970000000000000000000000000000000000000000000000000000000061282b565b6110bc7ffbc4a5180000000000000000000000000000000000000000000000000000000061282b565b6110e57fb73a60270000000000000000000000000000000000000000000000000000000061282b565b61110e7f030b27300000000000000000000000000000000000000000000000000000000061282b565b507f2c64c5ef0000000000000000000000000000000000000000000000000000000090565b611142858585853333876120e2565b5050505050565b600061115c611157836128b7565b612954565b90505b919050565b61116e33826129a6565b7fa015ad2dc32f266993958a0fd9884c746b971b254206f3478bc43e2f125c7b9e338260405161119f929190614968565b60405180910390a150565b60006111b583611149565b9050610ef2818385602001516129f7565b7f000000000000000000000000000000000000000000000000000000000000000081565b6060835185511480156111fe575082518551145b611234576040517f08c379a0000000000000000000000000000000000000000000000000000000008152600401610a1090614cf0565b845167ffffffffffffffff8111801561124c57600080fd5b50604051908082528060200260200182016040528015611276578160200160208202803683370190505b50905060006112854734612a95565b9050821561131c5760005b8651811015611316576112f08782815181106112a857fe5b60200260200101518783815181106112bc57fe5b60200260200101516112d78547612a9590919063ffffffff16565b8885815181106112e357fe5b6020026020010151610b03565b60018382815181106112fe57fe5b91151560209283029190910190910152600101611290565b506114ba565b60005b86518110156114b8577f000000000000000000000000000000000000000000000000000000000000000073ffffffffffffffffffffffffffffffffffffffff166360018b4160e01b88838151811061137357fe5b602002602001015188848151811061138757fe5b60200260200101516113a28647612a9590919063ffffffff16565b8986815181106113ae57fe5b60200260200101516040516024016113c9949392919061532b565b604080517fffffffffffffffffffffffffffffffffffffffffffffffffffffffffffffffe08184030181529181526020820180517bffffffffffffffffffffffffffffffffffffffffffffffffffffffff167fffffffff000000000000000000000000000000000000000000000000000000009094169390931790925290516114529190614913565b600060405180830381855af49150503d806000811461148d576040519150601f19603f3d011682016040523d82523d6000602084013e611492565b606091505b50508382815181106114a057fe5b9115156020928302919091019091015260010161131f565b505b47818110156114d4576114d461048e828403340134612ab4565b6114e033838303611c6d565b5050949350505050565b6000808261014001515111801561151c575060018251600181111561150b57fe5b14158061151c575061012082015115155b156115295750600061115f565b60018251600181111561153857fe5b148015611572575060a082015173ffffffffffffffffffffffffffffffffffffffff1673eeeeeeeeeeeeeeeeeeeeeeeeeeeeeeeeeeeeeeee145b1561157f5750600061115f565b428260600151116115925750600361115f565b600061159c611642565b60208085015173ffffffffffffffffffffffffffffffffffffffff166000908152828252604080822060808801805160081c84529352902054905191925090600160ff9091161b808216156115f7576002935050505061115f565b506001949350505050565b600061160e4734612a95565b905061161c84843485610b03565b47818110156116365761163661048e828403340134612ab4565b61114233838303611c6d565b60008061040e6009612aea565b60607f21916d9c05d4d89fb4c8db2934603a48c5480a95f94dfd3a2cd9ac40b8615d15838360405160240161168592919061498e565b604080517fffffffffffffffffffffffffffffffffffffffffffffffffffffffffffffffe08184030181529190526020810180517bffffffffffffffffffffffffffffffffffffffffffffffffffffffff167fffffffff0000000000000000000000000000000000000000000000000000000090931692909217909152905092915050565b805160208201fd5b61171a613a30565b5090565b611726613ae3565b61172e613a30565b61173783611712565b905061174281611149565b825261174d816114ea565b8260200190600381111561175d57fe5b9081600381111561176a57fe5b9052506001604083018190528260200151600381111561178657fe5b14611792576000611795565b60015b60ff16606083015250919050565b6000845160018111156117b257fe5b146117e9576040517f08c379a0000000000000000000000000000000000000000000000000000000008152600401610a1090615115565b604084015173ffffffffffffffffffffffffffffffffffffffff161580159061184257508073ffffffffffffffffffffffffffffffffffffffff16846040015173ffffffffffffffffffffffffffffffffffffffff1614155b156118585761185861048e828660400151612b05565b60018260200151600381111561186a57fe5b146118945761189461048e856020015186608001518560200151600381111561188f57fe5b612b3b565b6118a782600001518486602001516129f7565b50505050565b6001855160018111156118bc57fe5b146118f3576040517f08c379a0000000000000000000000000000000000000000000000000000000008152600401610a1090614f44565b60a085015173ffffffffffffffffffffffffffffffffffffffff1673eeeeeeeeeeeeeeeeeeeeeeeeeeeeeeeeeeeeeeee141561195b576040517f08c379a0000000000000000000000000000000000000000000000000000000008152600401610a1090614e2d565b604085015173ffffffffffffffffffffffffffffffffffffffff16158015906119b457508173ffffffffffffffffffffffffffffffffffffffff16856040015173ffffffffffffffffffffffffffffffffffffffff1614155b156119ca576119ca61048e838760400151612b05565b6001836020015160038111156119dc57fe5b14611a0157611a0161048e866020015187608001518660200151600381111561188f57fe5b611a0b85826121cd565b61114283600001518587602001516129f7565b806fffffffffffffffffffffffffffffffff16600114611a3a57fe5b610ef2836020015184608001516129a6565b60607f2c837d7451f39ae9868ea7dacec7847412534d287da737ffde01c3c8b2f61c0a83836040516024016116859291906153ee565b73ffffffffffffffffffffffffffffffffffffffff8416301415611ad2576040517f08c379a0000000000000000000000000000000000000000000000000000000008152600401610a1090615289565b6040517f23b872dd00000000000000000000000000000000000000000000000000000000815273ffffffffffffffffffffffffffffffffffffffff8416600482015273ffffffffffffffffffffffffffffffffffffffff83166024820152816044820152600080606483600073ffffffffffffffffffffffffffffffffffffffff8a165af180611b66573d806000843e8083fd5b505050505050565b73ffffffffffffffffffffffffffffffffffffffff8416301415611bbe576040517f08c379a0000000000000000000000000000000000000000000000000000000008152600401610a109061522c565b6040517f23b872dd00000000000000000000000000000000000000000000000000000000815273ffffffffffffffffffffffffffffffffffffffff8416600482015273ffffffffffffffffffffffffffffffffffffffff83166024820152816044820152602081606483600073ffffffffffffffffffffffffffffffffffffffff8a165af13d60018351146020821015168115178216915081611c6457806000843e8083fd5b50505050505050565b8015610aff5760008273ffffffffffffffffffffffffffffffffffffffff1682604051611c9990614965565b60006040518083038185875af1925050503d8060008114611cd6576040519150601f19603f3d011682016040523d82523d6000602084013e611cdb565b606091505b5050905080610ef2576040517f08c379a0000000000000000000000000000000000000000000000000000000008152600401610a109061505b565b60008115611dce5773ffffffffffffffffffffffffffffffffffffffff85163014611d3d57fe5b7f000000000000000000000000000000000000000000000000000000000000000073ffffffffffffffffffffffffffffffffffffffff168660a0015173ffffffffffffffffffffffffffffffffffffffff161480611dc8575060a086015173ffffffffffffffffffffffffffffffffffffffff1673eeeeeeeeeeeeeeeeeeeeeeeeeeeeeeeeeeeeeeee145b611dce57fe5b60005b8660e001515181101561206c57611de6613b35565b8760e001518281518110611df657fe5b602002602001015190503073ffffffffffffffffffffffffffffffffffffffff16816000015173ffffffffffffffffffffffffffffffffffffffff161415611e6a576040517f08c379a0000000000000000000000000000000000000000000000000000000008152600401610a10906150b8565b6000856fffffffffffffffffffffffffffffffff16876fffffffffffffffffffffffffffffffff161415611ea357506020810151611ed9565b611ed6876fffffffffffffffffffffffffffffffff16876fffffffffffffffffffffffffffffffff168460200151612bf9565b90505b80611ee5575050612064565b8415611efc578151611ef79082611c6d565b611f10565b611f108960a0015189846000015184611b6e565b6040820151511561205557815160009073ffffffffffffffffffffffffffffffffffffffff166330787dd187611f4a578b60a00151611f60565b73eeeeeeeeeeeeeeeeeeeeeeeeeeeeeeeeeeeeeeee5b8486604001516040518463ffffffff1660e01b8152600401611f8493929190614a12565b602060405180830381600087803b158015611f9e57600080fd5b505af1158015611fb2573d6000803e3d6000fd5b505050506040513d601f19601f82011682018060405250810190611fd691906142f6565b90507fffffffff0000000000000000000000000000000000000000000000000000000081167f30787dd10000000000000000000000000000000000000000000000000000000014612053576040517f08c379a0000000000000000000000000000000000000000000000000000000008152600401610a1090614ee7565b505b61205f8482612c17565b935050505b600101611dd1565b5095945050505050565b60607fcc7617254e6a41fba90a903927c0528c50be1de6f67462ac6cad28a99b1fdf7283836040516024016116859291906153ee565b60607f035a4cad8d6eddf7c418e1bf06082335925e99c1e1c08596b45ea79896833d73838360405160240161168592919061498e565b6121626120ee88611712565b876040518060c0016040528060016fffffffffffffffffffffffffffffffff16815260200189815260200188151581526020018773ffffffffffffffffffffffffffffffffffffffff1681526020018673ffffffffffffffffffffffffffffffffffffffff16815260200185815250612c3a565b507f50273fa02273cceea9cf085b42de5c8af60624140168bd71357db833535877af87600001518860200151858a608001518b60a001518c60c001518d61010001518c60006040516121bc99989796959493929190614bd9565b60405180910390a150505050505050565b6001825160018111156121dc57fe5b14612213576040517f08c379a0000000000000000000000000000000000000000000000000000000008152600401610a1090614ffe565b6101408201515161224157816101200151811461223c5761223c61048e828461012001516130a7565b610aff565b60005b82610140015151811015610ef25761225a613b6c565b836101400151828151811061226b57fe5b60200260200101519050600073ffffffffffffffffffffffffffffffffffffffff16816000015173ffffffffffffffffffffffffffffffffffffffff1614156122b45750612395565b805161010085015160208301516040517f1395c0f300000000000000000000000000000000000000000000000000000000815273ffffffffffffffffffffffffffffffffffffffff90931692631395c0f392612317929091889190600401614a12565b60006040518083038186803b15801561232f57600080fd5b505afa925050508015612340575060015b612393573d80801561236e576040519150601f19603f3d011682016040523d82523d6000602084013e612373565b606091505b5061239161048e8360000151876101000151878660200151866130dd565b505b505b600101612244565b60006123a7613ae3565b6123b08561171e565b90506123be858583336117a3565b80606001516fffffffffffffffffffffffffffffffff1683600001516fffffffffffffffffffffffffffffffff1611156124075761240761048e826060015185600001516131a1565b80518351612416918791611a1e565b80604001516fffffffffffffffffffffffffffffffff1683600001516fffffffffffffffffffffffffffffffff161415612456578460c001519150612494565b61249183600001516fffffffffffffffffffffffffffffffff1682604001516fffffffffffffffffffffffffffffffff168760c001516131d7565b91505b6124c585610100015186602001513388610120015187600001516fffffffffffffffffffffffffffffffff166131fb565b60208301516040840151511561263f573330141561250f576040517f08c379a0000000000000000000000000000000000000000000000000000000008152600401610a10906151cf565b815160408086015190517ff2b45c6f0000000000000000000000000000000000000000000000000000000081524792600092339263f2b45c6f92612557929091600401614ae1565b602060405180830381600087803b15801561257157600080fd5b505af1158015612585573d6000803e3d6000fd5b505050506040513d601f19601f820116820180604052508101906125a991906142f6565b90506125bf6125b84784612a95565b8490612c17565b92507fffffffff0000000000000000000000000000000000000000000000000000000081167ff2b45c6f000000000000000000000000000000000000000000000000000000001461263c576040517f08c379a0000000000000000000000000000000000000000000000000000000008152600401610a1090614d4d565b50505b60a086015173ffffffffffffffffffffffffffffffffffffffff1673eeeeeeeeeeeeeeeeeeeeeeeeeeeeeeeeeeeeeeee141561269d57612683866020015184611c6d565b61269886856000015184604001518685613211565b612822565b7f000000000000000000000000000000000000000000000000000000000000000073ffffffffffffffffffffffffffffffffffffffff168660a0015173ffffffffffffffffffffffffffffffffffffffff1614156127f6578281106127c6577f000000000000000000000000000000000000000000000000000000000000000073ffffffffffffffffffffffffffffffffffffffff1663d0e30db0846040518263ffffffff1660e01b81526004016000604051808303818588803b15801561276457600080fd5b505af1158015612778573d6000803e3d6000fd5b50505050506127ac7f0000000000000000000000000000000000000000000000000000000000000000876020015185613244565b6127c186856000015184604001518685613211565b612698565b6127da8660a0015133886020015186611b6e565b6127f08633866000015185604001516000611d16565b50612822565b61280a8660a0015133886020015186611b6e565b6128208633866000015185604001516000611d16565b505b50509392505050565b6040517f6eb224cb0000000000000000000000000000000000000000000000000000000081523090636eb224cb906128899084907f000000000000000000000000000000000000000000000000000000000000000090600401614b45565b600060405180830381600087803b1580156128a357600080fd5b505af1158015611142573d6000803e3d6000fd5b6000806128c883610140015161331e565b905060006128d98460e00151613550565b905060208410156128e657fe5b7fffffffffffffffffffffffffffffffffffffffffffffffffffffffffffffffe08401805160e08601805161014090970180517f2de32b2b090da7d8ab83ca4c85ba2eb6957bc7f6c50cb4ae1995e87560d808ed855294825294855261018083209190925294905290525090565b60007f00000000000000000000000000000000000000000000000000000000000000008260405160200161298992919061492f565b604051602081830303815290604052805190602001209050919050565b600160ff82161b806129b6611642565b73ffffffffffffffffffffffffffffffffffffffff90941660009081526020948552604080822060089590951c825293909452919092208054909117905550565b600482516004811115612a0657fe5b1415612a47576000612a16611642565b6000858152600191909101602052604090205460ff16905080612a4157612a4161048e83600061372a565b50610ef2565b6000612a538484613760565b90508173ffffffffffffffffffffffffffffffffffffffff168173ffffffffffffffffffffffffffffffffffffffff16146118a7576118a761048e838361372a565b600082821115612aae57612aae61048e600285856138b1565b50900390565b60607ff066156ec319f3a42c58bb7c010e11f5c3620c829e5770398578cb4afa69970f83836040516024016116859291906153ee565b6000608082600a811115612afa57fe5b600101901b92915050565b60607f95d9ecc19fc066a15ea87d62b14d6e6f74032bbb37cecf6f42cb5ae9e2b29820838360405160240161168592919061498e565b60607f03174b9cc303cd904c8eab3eb42c9a7f59293ef5eceb9fe1c27da0778ad16138848484604051602401612b7393929190614a47565b604080517fffffffffffffffffffffffffffffffffffffffffffffffffffffffffffffffe08184030181529190526020810180517bffffffffffffffffffffffffffffffffffffffffffffffffffffffff167fffffffff000000000000000000000000000000000000000000000000000000009093169290921790915290509392505050565b6000612c0f83612c0986856138d0565b90613901565b949350505050565b600082820183811015612c3357612c3361048e600086866138b1565b9392505050565b6000612c44613ae3565b612c4d8561171e565b9050612c64858583866060015187602001516118ad565b80606001516fffffffffffffffffffffffffffffffff1683600001516fffffffffffffffffffffffffffffffff161115612cad57612cad61048e826060015185600001516131a1565b80518351612cbc918791611a1e565b80604001516fffffffffffffffffffffffffffffffff1683600001516fffffffffffffffffffffffffffffffff161415612cfc578460c001519150612d3a565b612d3783600001516fffffffffffffffffffffffffffffffff1682604001516fffffffffffffffffffffffffffffffff168760c00151612bf9565b91505b826040015115612eb3577f000000000000000000000000000000000000000000000000000000000000000073ffffffffffffffffffffffffffffffffffffffff168560a0015173ffffffffffffffffffffffffffffffffffffffff1614612dcc57612dcc61048e8660a001517f00000000000000000000000000000000000000000000000000000000000000006120ac565b612dfc7f000000000000000000000000000000000000000000000000000000000000000086602001513085611b6e565b6040517f2e1a7d4d00000000000000000000000000000000000000000000000000000000815273ffffffffffffffffffffffffffffffffffffffff7f00000000000000000000000000000000000000000000000000000000000000001690632e1a7d4d90612e6e908590600401614ad8565b600060405180830381600087803b158015612e8857600080fd5b505af1158015612e9c573d6000803e3d6000fd5b50505050612eae836060015183611c6d565b612ecb565b612ecb8560a001518660200151856060015185611b6e565b60a0830151511561305957606083015173ffffffffffffffffffffffffffffffffffffffff16301415612f2a576040517f08c379a0000000000000000000000000000000000000000000000000000000008152600401610a1090615172565b6060830151815160a08501516040517ff2b45c6f00000000000000000000000000000000000000000000000000000000815260009373ffffffffffffffffffffffffffffffffffffffff169263f2b45c6f92612f8892600401614ae1565b602060405180830381600087803b158015612fa257600080fd5b505af1158015612fb6573d6000803e3d6000fd5b505050506040513d601f19601f82011682018060405250810190612fda91906142f6565b90507fffffffff0000000000000000000000000000000000000000000000000000000081167ff2b45c6f0000000000000000000000000000000000000000000000000000000014613057576040517f08c379a0000000000000000000000000000000000000000000000000000000008152600401610a1090614fa1565b505b61308d85610100015184608001518760200151866020015187600001516fffffffffffffffffffffffffffffffff166131fb565b612822858660200151856000015184604001516000611d16565b60607f3a0e82ab33a6ded59a82e996d14f78373afacfa934ad72bb76427beb2c8abd4083836040516024016116859291906153ee565b60607f409690f4d9f5014a9e8b0bc8995bfa0621e9da9daa9cd07a7c17d83cd3c4b59686868686866040516024016131199594939291906149b5565b604080517fffffffffffffffffffffffffffffffffffffffffffffffffffffffffffffffe08184030181529190526020810180517bffffffffffffffffffffffffffffffffffffffffffffffffffffffff167fffffffff0000000000000000000000000000000000000000000000000000000090931692909217909152905095945050505050565b60607f4a5879850ad3b01848624d9559668b5a30a921c62ed2e7c3301591f9e7899a76838360405160240161168592919061536e565b6000612c0f83612c096131eb826001612a95565b6131f588876138d0565b90612c17565b8060011461320557fe5b61114285858585611a82565b6000613221863087876001611d16565b905061322d8382612c17565b925081831115611b6657611b6661048e8484612ab4565b73ffffffffffffffffffffffffffffffffffffffff8316301415613294576040517f08c379a0000000000000000000000000000000000000000000000000000000008152600401610a109061522c565b6040517fa9059cbb00000000000000000000000000000000000000000000000000000000815273ffffffffffffffffffffffffffffffffffffffff83166004820152816024820152602081604483600073ffffffffffffffffffffffffffffffffffffffff89165af13d60018351146020821015168115178216915081611b6657806000843e8083fd5b805160009080613350577fc5d2460186f7233c927e7db2dcc703c0e500b653ca82273b7bfad8045d85a470915061354a565b806001141561344e57613361613b6c565b8360008151811061336e57fe5b60200260200101519050600073ffffffffffffffffffffffffffffffffffffffff16816000015173ffffffffffffffffffffffffffffffffffffffff161480156133bb5750602081015151155b156133e8577f720ee400a9024f6a49768142c339bf09d2dd9056ab52d20fbe7165faba6e142d9250613448565b602080820151805190820120604080517f6292cf854241cb36887e639065eca63b3af9f7f70270cebeda4c29b6d3bc65e88152845173ffffffffffffffffffffffffffffffffffffffff1681850152908101919091526060812081522092505b5061354a565b60608167ffffffffffffffff8111801561346757600080fd5b50604051908082528060200260200182016040528015613491578160200160208202803683370190505b50905060005b8281101561353e577f6292cf854241cb36887e639065eca63b3af9f7f70270cebeda4c29b6d3bc65e88582815181106134cc57fe5b6020026020010151600001518683815181106134e457fe5b60200260200101516020015180519060200120604051602001613509939291906153c2565b6040516020818303038152906040528051906020012082828151811061352b57fe5b6020908102919091010152600101613497565b50602082810291012091505b50919050565b805160009080613582577fc5d2460186f7233c927e7db2dcc703c0e500b653ca82273b7bfad8045d85a470915061354a565b806001141561362157613593613b35565b836000815181106135a057fe5b60200260200101519050600081604001518051906020012090506040517fe68c29f1b4e8cce0bbcac76eb1334bdc1dc1f293a517c90e9e532340e1e941158152825173ffffffffffffffffffffffffffffffffffffffff1660208201526020830151604082015281606082015260808120815260208120945050505061354a565b60608167ffffffffffffffff8111801561363a57600080fd5b50604051908082528060200260200182016040528015613664578160200160208202803683370190505b50905060005b8281101561353e577fe68c29f1b4e8cce0bbcac76eb1334bdc1dc1f293a517c90e9e532340e1e9411585828151811061369f57fe5b6020026020010151600001518683815181106136b757fe5b6020026020010151602001518784815181106136cf57fe5b602002602001015160400151805190602001206040516020016136f59493929190615391565b6040516020818303038152906040528051906020012082828151811061371757fe5b602090810291909101015260010161366a565b60607f84356db366796dc6e2aeb1ad74b631fe4e5ec6a650464da6059e9f95c8810a10838360405160240161168592919061498e565b600061376c838361392b565b60028251600481111561377b57fe5b14156137e357600183836020015184604001518560600151604051600081526020016040526040516137b09493929190614afa565b6020604051602081039080840390855afa1580156137d2573d6000803e3d6000fd5b505050602060405103519050613888565b6003825160048111156137f257fe5b14156138885760007f19457468657265756d205369676e6564204d6573736167653a0a33320000000060005283601c52603c6000209050600181846020015185604001518660600151604051600081526020016040526040516138589493929190614afa565b6020604051602081039080840390855afa15801561387a573d6000803e3d6000fd5b505050602060405103519150505b73ffffffffffffffffffffffffffffffffffffffff811661040e5761040e61048e6005856139fa565b606063e946c1bb60e01b848484604051602401612b7393929190614b8d565b6000826138df5750600061040e565b828202828482816138ec57fe5b0414612c3357612c3361048e600186866138b1565b6000816139175761391761048e600385856138b1565b600082848161392257fe5b04949350505050565b60408101517ffffffffffffffffffffffffffffffffebaaedce6af48a03bbfd25e8cd0364141111580613982575060608101517f7fffffffffffffffffffffffffffffff5d576e7357a4501ddfe92f46681b20a111155b156139955761399561048e6005846139fa565b6000815160048111156139a457fe5b14156139b8576139b861048e6003846139fa565b6001815160048111156139c757fe5b14156139db576139db61048e6000846139fa565b6004815160048111156139ea57fe5b1415610aff57610aff61048e6002845b60607ff18f11f3027e735c758137924b262d4d3aff0037dcd785aca3c699fa05d960bd8383604051602401611685929190614bc1565b6040805161016081019091528060008152602001600073ffffffffffffffffffffffffffffffffffffffff168152602001600073ffffffffffffffffffffffffffffffffffffffff1681526020016000815260200160008152602001600073ffffffffffffffffffffffffffffffffffffffff1681526020016000815260200160608152602001600073ffffffffffffffffffffffffffffffffffffffff16815260200160008152602001606081525090565b604080516080810190915260008082526020820190815260006020820181905260409091015290565b604080516080810190915280600081526000602082018190526040820181905260609091015290565b6040518060600160405280600073ffffffffffffffffffffffffffffffffffffffff16815260200160008152602001606081525090565b60408051808201909152600081526060602082015290565b803561040e81615487565b600082601f830112613b9f578081fd5b8135613bb2613bad82615423565b6153fc565b818152915060208083019084810160005b84811015613bec57613bda888484358a0101613ea6565b84529282019290820190600101613bc3565b505050505092915050565b600082601f830112613c07578081fd5b8135613c15613bad82615423565b818152915060208083019084810160005b84811015613bec57813587016060807fffffffffffffffffffffffffffffffffffffffffffffffffffffffffffffffe0838c03011215613c6557600080fd5b613c6e816153fc565b613c7a8b878501613b84565b815260408381013587830152918301359167ffffffffffffffff831115613ca057600080fd5b613cae8c8885870101613e10565b90820152865250509282019290820190600101613c26565b600082601f830112613cd6578081fd5b8135613ce4613bad82615423565b818152915060208083019084810160005b84811015613bec57813587016040807fffffffffffffffffffffffffffffffffffffffffffffffffffffffffffffffe0838c03011215613d3457600080fd5b613d3d816153fc565b85830135613d4a81615487565b8152908201359067ffffffffffffffff821115613d6657600080fd5b613d748b8784860101613e10565b81870152865250509282019290820190600101613cf5565b600082601f830112613d9c578081fd5b8135613daa613bad82615423565b8181529150602080830190848101608080850287018301881015613dcd57600080fd5b60005b85811015613df457613de28984613fa2565b85529383019391810191600101613dd0565b50505050505092915050565b8035801515811461040e57600080fd5b600082601f830112613e20578081fd5b813567ffffffffffffffff811115613e36578182fd5b613e6760207fffffffffffffffffffffffffffffffffffffffffffffffffffffffffffffffe0601f840116016153fc565b9150808252836020828501011115613e7e57600080fd5b8060208401602084013760009082016020015292915050565b80356002811061040e57600080fd5b6000610160808385031215613eb9578182fd5b613ec2816153fc565b915050613ecf8383613e97565b8152613ede8360208401613b84565b6020820152613ef08360408401613b84565b60408201526060820135606082015260808201356080820152613f168360a08401613b84565b60a082015260c082013560c082015260e082013567ffffffffffffffff80821115613f4057600080fd5b613f4c85838601613bf7565b60e08401526101009150613f6285838601613b84565b828401526101209150818401358284015261014091508184013581811115613f8957600080fd5b613f9586828701613cc6565b8385015250505092915050565b600060808284031215613fb3578081fd5b613fbd60806153fc565b9050813560058110613fce57600080fd5b8152602082013560ff81168114613fe457600080fd5b80602083015250604082013560408201526060820135606082015292915050565b60008060008060006080868803121561401c578081fd5b853561402781615487565b9450602086013561403781615487565b935060408601359250606086013567ffffffffffffffff8082111561405a578283fd5b818801915088601f83011261406d578283fd5b81358181111561407b578384fd5b89602082850101111561408c578384fd5b9699959850939650602001949392505050565b600080604083850312156140b1578182fd5b82356140bc81615487565b915060208301357effffffffffffffffffffffffffffffffffffffffffffffffffffffffffffff811681146140ef578182fd5b809150509250929050565b6000806000806080858703121561410f578182fd5b843567ffffffffffffffff80821115614126578384fd5b61413288838901613b8f565b95506020870135915080821115614147578384fd5b61415388838901613b8f565b94506040870135915080821115614168578384fd5b61417488838901613d8c565b93506060870135915080821115614189578283fd5b5061419687828801613d8c565b91505092959194509250565b600080600080608085870312156141b7578182fd5b843567ffffffffffffffff808211156141ce578384fd5b6141da88838901613b8f565b95506020915081870135818111156141f0578485fd5b6141fc89828a01613d8c565b955050604087013581811115614210578485fd5b87019050601f81018813614222578384fd5b8035614230613bad82615423565b81815283810190838501875b84811015614265576142538d888435890101613e10565b8452928601929086019060010161423c565b5050809650505050505061427c8660608701613e00565b905092959194509250565b60008060208385031215614299578182fd5b823567ffffffffffffffff808211156142b0578384fd5b818501915085601f8301126142c3578384fd5b8135818111156142d1578485fd5b86602080830285010111156142e4578485fd5b60209290920196919550909350505050565b600060208284031215614307578081fd5b81517fffffffff0000000000000000000000000000000000000000000000000000000081168114612c33578182fd5b600060208284031215614347578081fd5b813567ffffffffffffffff81111561435d578182fd5b612c0f84828501613ea6565b600080600080610140858703121561437f578182fd5b843567ffffffffffffffff80821115614396578384fd5b6143a288838901613ea6565b955060208701359150808211156143b7578384fd5b506143c487828801613ea6565b9350506143d48660408701613fa2565b915061427c8660c08701613fa2565b60008060a083850312156143f5578182fd5b823567ffffffffffffffff81111561440b578283fd5b61441785828601613ea6565b9250506144278460208501613fa2565b90509250929050565b600080600060c08486031215614444578081fd5b833567ffffffffffffffff81111561445a578182fd5b61446686828701613ea6565b9350506144768560208601613fa2565b915060a0840135801515811461448a578182fd5b809150509250925092565b600080600060c084860312156144a9578081fd5b833567ffffffffffffffff808211156144c0578283fd5b6144cc87838801613ea6565b94506144db8760208801613fa2565b935060a08601359150808211156144f0578283fd5b506144fd86828701613e10565b9150509250925092565b6000806000806000610100868803121561451f578283fd5b853567ffffffffffffffff80821115614536578485fd5b61454289838a01613ea6565b96506145518960208a01613fa2565b955060a088013594506145678960c08a01613e00565b935060e088013591508082111561457c578283fd5b5061458988828901613e10565b9150509295509295909350565b60008060008060e085870312156145ab578182fd5b843567ffffffffffffffff808211156145c2578384fd5b6145ce88838901613ea6565b95506145dd8860208901613fa2565b945060a0870135935060c08701359150808211156145f9578283fd5b5061419687828801613e10565b60008060408385031215614618578182fd5b823567ffffffffffffffff81111561462e578283fd5b61463a85828601613ea6565b95602094909401359450505050565b60006020828403121561465a578081fd5b5035919050565b600060208284031215614672578081fd5b5051919050565b73ffffffffffffffffffffffffffffffffffffffff169052565b6000815180845260208085019450808401835b838110156146c45781511515875295820195908201906001016146a6565b509495945050505050565b6000815180845260208085018081965082840281019150828601855b8581101561474b5782840389528151805173ffffffffffffffffffffffffffffffffffffffff1685528581015186860152604090810151606091860182905290614737818701836147c8565b9a87019a95505050908401906001016146eb565b5091979650505050505050565b6000815180845260208085018081965082840281019150828601855b8581101561474b5782840389528151805173ffffffffffffffffffffffffffffffffffffffff16855285015160408686018190526147b4818701836147c8565b9a87019a9550505090840190600101614774565b600081518084526147e081602086016020860161544e565b601f017fffffffffffffffffffffffffffffffffffffffffffffffffffffffffffffffe0169290920160200192915050565b6002811061481c57fe5b9052565b6000610160614830848451614812565b60208301516148426020860182614679565b5060408301516148556040860182614679565b50606083015160608501526080830151608085015260a083015161487c60a0860182614679565b5060c083015160c085015260e08301518160e086015261489e828601826146cf565b915050610100808401516148b482870182614679565b5050610120838101519085015261014080840151858303828701526148d98382614758565b9695505050505050565b8051600581106148ef57fe5b825260208181015160ff169083015260408082015190830152606090810151910152565b6000825161492581846020870161544e565b9190910192915050565b7f190100000000000000000000000000000000000000000000000000000000000081526002810192909252602282015260420190565b90565b73ffffffffffffffffffffffffffffffffffffffff929092168252602082015260400190565b73ffffffffffffffffffffffffffffffffffffffff92831681529116602082015260400190565b600073ffffffffffffffffffffffffffffffffffffffff808816835280871660208401525084604083015260a060608301526149f460a08301856147c8565b8281036080840152614a0681856147c8565b98975050505050505050565b600073ffffffffffffffffffffffffffffffffffffffff85168252836020830152606060408301526109b460608301846147c8565b73ffffffffffffffffffffffffffffffffffffffff939093168352602083019190915260ff16604082015260600190565b600060208252612c336020830184614693565b604080825283519082018190526000906020906060840190828701845b82811015614ac457815184529284019290840190600101614aa8565b505050838103828501526148d98186614693565b90815260200190565b600083825260406020830152612c0f60408301846147c8565b93845260ff9290921660208401526040830152606082015260800190565b7fffffffff0000000000000000000000000000000000000000000000000000000091909116815260200190565b7fffffffff0000000000000000000000000000000000000000000000000000000092909216825273ffffffffffffffffffffffffffffffffffffffff16602082015260400190565b60608101614b9a8561547a565b938152602081019290925260409091015290565b60208101614bbb8361547a565b91905290565b6040810160068410614bcf57fe5b9281526020015290565b6101208101614be78b615443565b825273ffffffffffffffffffffffffffffffffffffffff998a16602083015297891660408201526060810196909652938716608086015260a0850192909252851660c084015260e083015290921661010090920191909152919050565b6000610160614c528e615443565b835273ffffffffffffffffffffffffffffffffffffffff808e166020850152808d1660408501528b60608501528a6080850152808a1660a08501528860c08501528160e0850152614ca5828501896146cf565b91508087166101008501525084610120840152828103610140840152614ccb8185614758565b9e9d5050505050505050505050505050565b600060208252612c3360208301846147c8565b6020808252603a908201527f4552433732314f7264657273466561747572653a3a626174636842757945524360408201527f373231732f41525241595f4c454e4754485f4d49534d41544348000000000000606082015260800190565b60208082526022908201527f4e46544f72646572733a3a5f6275794e46542f43414c4c4241434b5f4641494c60408201527f4544000000000000000000000000000000000000000000000000000000000000606082015260800190565b60208082526041908201527f4552433732314f7264657273466561747572653a3a62617463684d617463684560408201527f52433732314f72646572732f41525241595f4c454e4754485f4d49534d41544360608201527f4800000000000000000000000000000000000000000000000000000000000000608082015260a00190565b60208082526035908201527f4e46544f72646572733a3a5f76616c69646174654275794f726465722f4e415460408201527f4956455f544f4b454e5f4e4f545f414c4c4f5745440000000000000000000000606082015260800190565b60208082526032908201527f4552433732314f7264657273466561747572653a3a7072655369676e4552433760408201527f32314f726465722f4f4e4c595f4d414b45520000000000000000000000000000606082015260800190565b60208082526023908201527f4e46544f72646572733a3a5f706179466565732f43414c4c4241434b5f46414960408201527f4c45440000000000000000000000000000000000000000000000000000000000606082015260800190565b60208082526032908201527f4e46544f72646572733a3a5f76616c69646174654275794f726465722f57524f60408201527f4e475f54524144455f444952454354494f4e0000000000000000000000000000606082015260800190565b60208082526023908201527f4e46544f72646572733a3a5f73656c6c4e46542f43414c4c4241434b5f46414960408201527f4c45440000000000000000000000000000000000000000000000000000000000606082015260800190565b60208082526039908201527f4e46544f72646572733a3a5f76616c69646174654f7264657250726f7065727460408201527f6965732f57524f4e475f54524144455f444952454354494f4e00000000000000606082015260800190565b6020808252602f908201527f466978696e546f6b656e5370656e6465723a3a5f7472616e736665724574682f60408201527f5452414e534645525f4641494c45440000000000000000000000000000000000606082015260800190565b60208082526036908201527f4e46544f72646572733a3a5f706179466565732f524543495049454e545f434160408201527f4e4e4f545f42455f45584348414e47455f50524f585900000000000000000000606082015260800190565b60208082526033908201527f4e46544f72646572733a3a5f76616c696461746553656c6c4f726465722f575260408201527f4f4e475f54524144455f444952454354494f4e00000000000000000000000000606082015260800190565b60208082526028908201527f4e46544f72646572733a3a5f73656c6c4e46542f43414e4e4f545f43414c4c4260408201527f41434b5f53454c46000000000000000000000000000000000000000000000000606082015260800190565b60208082526027908201527f4e46544f72646572733a3a5f6275794e46542f43414e4e4f545f43414c4c424160408201527f434b5f53454c4600000000000000000000000000000000000000000000000000606082015260800190565b60208082526024908201527f466978696e546f6b656e5370656e6465722f43414e4e4f545f494e564f4b455f60408201527f53454c4600000000000000000000000000000000000000000000000000000000606082015260800190565b60208082526025908201527f466978696e4552433732315370656e6465722f43414e4e4f545f494e564f4b4560408201527f5f53454c46000000000000000000000000000000000000000000000000000000606082015260800190565b60006101408083526152fa81840188614820565b9050828103602084015261530e8187614820565b91505061531e60408301856148e3565b6109b460c08301846148e3565b600060e0825261533e60e0830187614820565b61534b60208401876148e3565b8460a084015282810360c084015261536381856147c8565b979650505050505050565b6fffffffffffffffffffffffffffffffff92831681529116602082015260400190565b93845273ffffffffffffffffffffffffffffffffffffffff9290921660208401526040830152606082015260800190565b92835273ffffffffffffffffffffffffffffffffffffffff919091166020830152604082015260600190565b918252602082015260400190565b60405181810167ffffffffffffffff8111828210171561541b57600080fd5b604052919050565b600067ffffffffffffffff821115615439578081fd5b5060209081020190565b806002811061115f57fe5b60005b83811015615469578181015183820152602001615451565b838111156118a75750506000910152565b6004811061548457fe5b50565b73ffffffffffffffffffffffffffffffffffffffff8116811461548457600080fdfea26469706673582212202f0ae1b71e52b46c747a6308e5e062a287ddb79f159304e44bd723ba71bb5b4064736f6c634300060c0033",
  "devdoc": {
    "details": "Feature for interacting with ERC721 orders.",
    "kind": "dev",
    "methods": {
      "batchBuyERC721s((uint8,address,address,uint256,uint256,address,uint256,(address,uint256,bytes)[],address,uint256,(address,bytes)[])[],(uint8,uint8,bytes32,bytes32)[],bytes[],bool)": {
        "details": "Buys multiple ERC721 assets by filling the      given orders.",
        "params": {
          "callbackData": "The data (if any) to pass to the taker        callback for each order. Refer to the `callbackData`        parameter to for `buyERC721`.",
          "revertIfIncomplete": "If true, reverts if this        function fails to fill any individual order.",
          "sellOrders": "The ERC721 sell orders.",
          "signatures": "The order signatures."
        },
        "returns": {
          "successes": "An array of booleans corresponding to whether         each order in `orders` was successfully filled."
        }
      },
      "batchCancelERC721Orders(uint256[])": {
        "details": "Cancel multiple ERC721 orders by their nonces. The caller      should be the maker of the orders. Silently succeeds if      an order with the same nonce has already been filled or      cancelled.",
        "params": {
          "orderNonces": "The order nonces."
        }
      },
      "batchMatchERC721Orders((uint8,address,address,uint256,uint256,address,uint256,(address,uint256,bytes)[],address,uint256,(address,bytes)[])[],(uint8,address,address,uint256,uint256,address,uint256,(address,uint256,bytes)[],address,uint256,(address,bytes)[])[],(uint8,uint8,bytes32,bytes32)[],(uint8,uint8,bytes32,bytes32)[])": {
        "details": "Matches pairs of complementary orders that have      non-negative spreads. Each order is filled at      their respective price, and the matcher receives      a profit denominated in the ERC20 token.",
        "params": {
          "buyOrderSignatures": "Signatures for the buy orders.",
          "buyOrders": "Orders buying ERC721 assets.",
          "sellOrderSignatures": "Signatures for the sell orders.",
          "sellOrders": "Orders selling ERC721 assets."
        },
        "returns": {
          "profits": "The amount of profit earned by the caller         of this function for each pair of matched orders         (denominated in the ERC20 token of the order pair).",
          "successes": "An array of booleans corresponding to         whether each pair of orders was successfully matched."
        }
      },
      "buyERC721((uint8,address,address,uint256,uint256,address,uint256,(address,uint256,bytes)[],address,uint256,(address,bytes)[]),(uint8,uint8,bytes32,bytes32),bytes)": {
        "details": "Buys an ERC721 asset by filling the given order.",
        "params": {
          "callbackData": "If this parameter is non-zero, invokes        `zeroExERC721OrderCallback` on `msg.sender` after        the ERC721 asset has been transferred to `msg.sender`        but before transferring the ERC20 tokens to the seller.        Native tokens acquired during the callback can be used        to fill the order.",
          "sellOrder": "The ERC721 sell order.",
          "signature": "The order signature."
        }
      },
      "cancelERC721Order(uint256)": {
        "details": "Cancel a single ERC721 order by its nonce. The caller      should be the maker of the order. Silently succeeds if      an order with the same nonce has already been filled or      cancelled.",
        "params": {
          "orderNonce": "The order nonce."
        }
      },
      "getERC721OrderHash((uint8,address,address,uint256,uint256,address,uint256,(address,uint256,bytes)[],address,uint256,(address,bytes)[]))": {
        "details": "Get the EIP-712 hash of an ERC721 order.",
        "params": {
          "order": "The ERC721 order."
        },
        "returns": {
          "orderHash": "The order hash."
        }
      },
      "getERC721OrderStatus((uint8,address,address,uint256,uint256,address,uint256,(address,uint256,bytes)[],address,uint256,(address,bytes)[]))": {
        "details": "Get the current status of an ERC721 order.",
        "params": {
          "order": "The ERC721 order."
        },
        "returns": {
          "status": "The status of the order."
        }
      },
      "getERC721OrderStatusBitVector(address,uint248)": {
        "details": "Get the order status bit vector for the given      maker address and nonce range.",
        "params": {
          "maker": "The maker of the order.",
          "nonceRange": "Order status bit vectors are indexed        by maker address and the upper 248 bits of the        order nonce. We define `nonceRange` to be these        248 bits."
        },
        "returns": {
          "bitVector": "The order status bit vector for the         given maker and nonce range."
        }
      },
      "matchERC721Orders((uint8,address,address,uint256,uint256,address,uint256,(address,uint256,bytes)[],address,uint256,(address,bytes)[]),(uint8,address,address,uint256,uint256,address,uint256,(address,uint256,bytes)[],address,uint256,(address,bytes)[]),(uint8,uint8,bytes32,bytes32),(uint8,uint8,bytes32,bytes32))": {
        "details": "Matches a pair of complementary orders that have      a non-negative spread. Each order is filled at      their respective price, and the matcher receives      a profit denominated in the ERC20 token.",
        "params": {
          "buyOrder": "Order buying an ERC721 asset.",
          "buyOrderSignature": "Signature for the buy order.",
          "sellOrder": "Order selling an ERC721 asset.",
          "sellOrderSignature": "Signature for the sell order."
        },
        "returns": {
          "profit": "The amount of profit earned by the caller         of this function (denominated in the ERC20 token         of the matched orders)."
        }
      },
      "migrate()": {
        "details": "Initialize and register this feature.      Should be delegatecalled by `Migrate.migrate()`.",
        "returns": {
          "success": "`LibMigrate.SUCCESS` on success."
        }
      },
      "onERC721Received(address,address,uint256,bytes)": {
        "details": "Callback for the ERC721 `safeTransferFrom` function.      This callback can be used to sell an ERC721 asset if      a valid ERC721 order, signature and `unwrapNativeToken`      are encoded in `data`. This allows takers to sell their      ERC721 asset without first calling `setApprovalForAll`.",
        "params": {
          "data": "Additional data with no specified format. If a        valid ERC721 order, signature and `unwrapNativeToken`        are encoded in `data`, this function will try to fill        the order using the received asset.",
          "operator": "The address which called `safeTransferFrom`.",
          "tokenId": "The ID of the asset being transferred."
        },
        "returns": {
          "success": "The selector of this function (0x150b7a02),         indicating that the callback succeeded."
        }
      },
      "preSignERC721Order((uint8,address,address,uint256,uint256,address,uint256,(address,uint256,bytes)[],address,uint256,(address,bytes)[]))": {
        "details": "Approves an ERC721 order on-chain. After pre-signing      the order, the `PRESIGNED` signature type will become      valid for that order and signer.",
        "params": {
          "order": "An ERC721 order."
        }
      },
      "sellERC721((uint8,address,address,uint256,uint256,address,uint256,(address,uint256,bytes)[],address,uint256,(address,bytes)[]),(uint8,uint8,bytes32,bytes32),uint256,bool,bytes)": {
        "details": "Sells an ERC721 asset to fill the given order.",
        "params": {
          "buyOrder": "The ERC721 buy order.",
          "callbackData": "If this parameter is non-zero, invokes        `zeroExERC721OrderCallback` on `msg.sender` after        the ERC20 tokens have been transferred to `msg.sender`        but before transferring the ERC721 asset to the buyer.",
          "erc721TokenId": "The ID of the ERC721 asset being        sold. If the given order specifies properties,        the asset must satisfy those properties. Otherwise,        it must equal the tokenId in the order.",
          "signature": "The order signature from the maker.",
          "unwrapNativeToken": "If this parameter is true and the        ERC20 token of the order is e.g. WETH, unwraps the        token before transferring it to the taker."
        }
      },
      "validateERC721OrderProperties((uint8,address,address,uint256,uint256,address,uint256,(address,uint256,bytes)[],address,uint256,(address,bytes)[]),uint256)": {
        "details": "If the given order is buying an ERC721 asset, checks      whether or not the given token ID satisfies the required      properties specified in the order. If the order does not      specify any properties, this function instead checks      whether the given token ID matches the ID in the order.      Reverts if any checks fail, or if the order is selling      an ERC721 asset.",
        "params": {
          "erc721TokenId": "The ID of the ERC721 asset.",
          "order": "The ERC721 order."
        }
      },
      "validateERC721OrderSignature((uint8,address,address,uint256,uint256,address,uint256,(address,uint256,bytes)[],address,uint256,(address,bytes)[]),(uint8,uint8,bytes32,bytes32))": {
        "details": "Checks whether the given signature is valid for the      the given ERC721 order. Reverts if not.",
        "params": {
          "order": "The ERC721 order.",
          "signature": "The signature to validate."
        }
      }
    },
    "stateVariables": {
      "ERC721_RECEIVED_MAGIC_BYTES": {
        "details": "The magic return value indicating the success of a `onERC721Received`."
      },
      "FEATURE_NAME": {
        "details": "Name of this feature."
      },
      "FEATURE_VERSION": {
        "details": "Version of this feature."
      }
    },
    "version": 1
  },
  "userdoc": {
    "kind": "user",
    "methods": {},
    "version": 1
  },
  "storageLayout": {
    "storage": [],
    "types": null
  }
}